:020000040800F2
:10000000000002203504000885040008850400086B
:10001000850400088504000885040008000000002D
:10002000000000000000000000000000850400083F
:10003000850400080000000085040008850400080D
:10004000850400088504000885040008850400086C
:10005000850400088504000885040008850400085C
:10006000850400088504000885040008850400084C
:10007000850400088504000885040008850400083C
:10008000850400088504000885040008850400082C
:10009000850400088504000885040008850400081C
:1000A000850400088504000885040008850400080C
:1000B0005102000885040008850400088504000832
:1000C00085040008850400088504000885040008EC
:1000D00085040008850400088504000885040008DC
:1000E00085040008850400088504000885040008CC
:1000F00085040008850400088504000885040008BC
:1001000085040008850400088504000885040008AB
:10011000850400088504000885040008850400089B
:10012000850400088504000885040008850400088B
:10013000850400088504000885040008850400087B
:10014000850400088504000885040008850400086B
:10015000850400088504000885040008850400085B
:10016000850400088504000885040008850400084B
:10017000850400088504000885040008850400083B
:08018000850400088504000855
:1001880010B5054C237833B9044B13B10448AFF3C9
:1001980000800123237010BD4804002000000000E7
:1001A8007C07000808B5064B1BB106480649AFF3A3
:1001B80000800648036813B1054B03B1984708BD92
:1001C800000000007C0700084C04002044040020C4
:1001D80000000000154B002B08BF134B9D46A3F5EC
:1001E800803A00218B460F461348144A121A00F031
:1001F8007FF90F4B002B00D098470E4B002B00D0F7
:1002080098470020002104000D000D48002802D066
:100218000C4800F039FA00F043F92000290000F0FA
:10022800DBF800F02DF900BF000008000000000016
:1002380000000000000000004804002064040020C2
:10024800910600089D0600084FF080431B8ADB07D3
:1002580004D5054B5A6982F400525A614FF0804325
:1002680000221A82704700BF000C0240354B364806
:100278001968002241F0010119609A60196821F09B
:10028800847121F4803119605860196882B021F4B2
:1002980080211960DA60009201921A6842F4803273
:1002A8001A601A4603E0009BB3F5A06F09D01368E3
:1002B80003F400330193009B01330093019B002B4F
:1002C800F1D0204B1B6813F4003318BF01230193AE
:1002D800019B012B05D01D4B4FF000629A6002B0C4
:1002E8007047184B1A4A186C1A4940F08050186425
:1002F800106840F4804010609A689A609A6842F4E6
:1003080000429A609A6842F4A0529A6059601A684A
:1003180042F080721A6019460B680A4A9B01FBD5A5
:100328000D4B40F205611960936823F00303936055
:10033800936843F002039360936803F00C03082B5F
:10034800FAD1C8E7003802401030002400ED00E080
:100358000070004008544007003C0240154B9A6862
:1003680002F00C02042A23D0082A09D0124A1149A3
:10037800124B8968C1F30311595CCA401A6170476E
:10038800586859685B6842024CBF0D4A0A4A01F036
:100398003F01C3F38813B2FBF1F202FB03F2054BF2
:1003A8005B68C3F3014301335B00B2FBF3F2DEE7A2
:1003B800034ADCE7003802400024F400040000206F
:1003C80040787D01AC0700080000002044040020AC
:1003D8004804002064040020114B1249186B124A8B
:1003E80040F0080018631C6C4FF0806044F0010472
:1003F8001C64086010684FF08043002140F0805072
:1004080010601985998989B241F001010122998109
:10041800DA62198889B241F0810119809A82FEE76F
:1004280000380240000C024000E100E0002100F02A
:1004380004B80D4B5B58435004310C480C4B421820
:100448009A42FFF4F6AF0B4A00F003B8002342F8D3
:10045800043B094B9A42FFF4F9AFFFF707FF00F09E
:100468001FF8FFF7B9FF7047AC070008000000202D
:10047800440400204804002064040020FFF7FEBF65
:1004880008B50021044600F087F8044B1868C36BD0
:1004980003B19847204600F07BF900BF78070008B1
:1004A80070B50F4E0F4D761BB61007D0043D0024D3
:1004B800013455F8043F9847A642F9D10A4E0B4D2E
:1004C800761B00F059F9B61008D0043D0024013419
:1004D80055F8043F9847A642F9D170BD70BD00BFDA
:1004E800A0070008A0070008A8070008A007000840
:1004F800F0B4840743D0541E002A3ED0CDB2034640
:1005080003E0621E002C38D0144603F8015B9A07FA
:10051800F7D1032C2AD9CDB245EA05250F2C45EA97
:10052800054515D9A4F110073F0903F1100606EB9C
:1005380007161A46156055609560D5601032B242AC
:10054800F8D104F00F040137032C03EB07130DD97E
:100558001E462246043A032A46F8045BFAD8221FAC
:1005680022F003020432134404F003042CB1C9B28C
:100578001C4403F8011BA342FBD1F0BC704714468E
:100588000346C6E7024B13B1024800F07DB8704736
:10059800000000009D0600082DE9F04F384B1B684D
:1005A80085B003F5A472019302900F460392019B54
:1005B800D3F84881B8F1000F1CD0DDF80CB04FF02B
:1005C8000109DA46D8F804305C1E11D408F1880510
:1005D8009E1C05EB830508EB860677B1EB6FBB42E3
:1005E8000BD0013C631CA5F10405A6F10406F4D167
:1005F800244A7ABB05B0BDE8F08FD8F8042056F835
:10060800043C013AA24216BF0022C8F8044046F84A
:10061800042C002BE5D0D8F88811D8F804B009FAD2
:1006280004F20A4210D0D8F88C110A420ED102986E
:1006380055F8041C9847D8F804305B45B7D1DAF868
:1006480000304345CDD0B2E79847F4E755F8040C9D
:100658009847F0E7D8F804306BB9D8F8003063B1A0
:100668004046CAF80030AFF30080DAF80080B8F1ED
:10067800000FA7D1BEE7D8F80030C2469846F6E783
:1006880078070008000000000146002002460346E3
:1006980000F018B838B5094D094C641BA41018BFF0
:1006A80005EB840505D0013C55F8043D9847002C1E
:1006B800F9D1BDE8384000F065B800BFA8070008C8
:1006C800AC070008F0B5274C2668D6F8484185B035
:1006D8000746002C41D065681F2D1EDD224818B939
:1006E8004FF0FF3005B0F0BD4FF4C870039102928F
:1006F8000193AFF300800399029A019B04460028F6
:10070800EED0D6F848512560002060600546C6F84E
:100718004841C4F88801C4F88C013FB9AB1C0020DB
:100728000135656044F8231005B0F0BD04EB850081
:100738004FF0010CC0F88820D4F888610CFA05F253
:100748001643022FC4F88861C0F80831E6D1D4F8FE
:100758008C311A43C4F88C21E0E706F5A674C6F874
:100768004841B8E77807000800000000430000008F
:100778001800002000000000F8B500BFF8BC08BC55
:100788009E467047F8B500BFF8BC08BC9E46704747
:0807980044FAFF7F010000009C
:0807A0008D050008AD01000801
:0407A80089010008BB
:1007AC000000000000000000000000000102030433
:1007BC0006070809007A030A000000000403002061
:1007CC006C030020D4030020000000000000000097
:1007DC00000000000000000000000000000000000D
:1007EC00000000000000000000000000740700087A
:1007FC0000000000000000000000000000000000ED
:10080C0000000000000000000000000000000000DC
:10081C0000000000000000000000000000000000CC
:10082C0000000000000000000000000000000000BC
:10083C0000000000000000000000000000000000AC
:10084C00000000000000000000000000000000009C
:10085C00000000000000000000000000000000008C
:10086C0001000000000000000E33CDAB34126DE629
:10087C00ECDE05000B000000000000000000000092
:10088C00000000000000000000000000000000005C
:10089C00000000000000000000000000000000004C
:1008AC00000000000000000000000000000000003C
:1008BC00000000000000000000000000000000002C
:040BEC0018000020CD
:040BF0000000000001
:0400000508000435B6
:00000001FF
