:020000040800F2
:1000000000000220AD300008F5300008F53000088F
:10001000F5300008F5300008F53000080000000059
:10002000000000000000000000000000F5300008A3
:10003000F530000800000000F5300008F530000839
:10004000F5300008F5300008F5300008F5300008FC
:10005000F5300008F5300008F5300008F5300008EC
:10006000F5300008F5300008F530000821090008D7
:10007000F5300008F5300008F5300008F5300008CC
:10008000F5300008F5300008F5300008F5300008BC
:10009000F5300008F5300008F5300008F5300008AC
:1000A000F5300008F5300008F5300008F53000089C
:1000B000F5300008F5300008F5300008A908000800
:1000C000ED080008F5300008F5300008F5300008AC
:1000D000F5300008F5300008F5300008F53000086C
:1000E000F5300008F5300008F5300008F53000085C
:1000F000F5300008F5300008F5300008F53000084C
:10010000F5300008F5300008F5300008F53000083B
:10011000F5300008F5300008F5300008F53000082B
:10012000F5300008F5300008F5300008F53000081B
:10013000F5300008F5300008F5300008F53000080B
:10014000F5300008F5300008F5300008F5300008FB
:10015000F5300008F5300008F5300008F5300008EB
:10016000F5300008F5300008F5300008F5300008DB
:10017000F5300008F5300008F5300008F5300008CB
:08018000F5300008F53000081D
:1001880008B540F25C40074BC2F200001B1A062B70
:1001980000D808BD40F20003C0F20003002BF8D0DD
:1001A8009847F6E75F04002008B540F25C4040F24B
:1001B8005C43C2F20003C2F200001B1A9B1003EB5F
:1001C800D373591000D108BD40F20002C0F20002FA
:1001D800002AF8D09047F6E710B540F25C44C2F226
:1001E8000004237873B9FFF7CBFF40F20003C0F295
:1001F80000032BB144F23820C0F60000AFF30080B2
:100208000123237010BD00BF08B540F20003C0F2FF
:1002180000034BB144F2382040F26041C0F60000C0
:10022800C2F20001AFF3008040F25840C2F2000071
:1002380003682BB140F20003C0F2000303B19847F2
:10024800BDE80840B0E700BF134B002B08BF114BB7
:100258009D46A3F5803A00218B460F461148124A65
:10026800121A02F0A3FF0D4B002B00D098470C4B3D
:10027800002B00D098470020002104000D000B48F7
:1002880002F036FF02F064FF2000290002F044FC6F
:1002980002F034FF00000800000000000000000029
:1002A800000000005C040020A404002025310008A0
:1002B80038B505464FF4A8400C46C4F200000121A9
:1002C80001F094FD4FF4A8400121C4F20000C0F2EF
:1002D800030101F09FFE0028F4D04FF4A840C4F2B7
:1002E8000000D021002201F09DFD4FF4A84082219A
:1002F800C4F20000C0F2070101F08CFE0028F4D01F
:100308004FF4A8402946C4F2000001F01DFE4FF446
:10031800A8408421C4F20000C0F2070101F07AFE6F
:100328000028F4D04FF4A8402146C4F2000001F0A0
:100338000BFE4FF4A8408421C4F20000C0F207016C
:1003480001F068FE0028F4D04FF4A840C4F2000081
:100358000121BDE8384001F057BD00BF38B505465A
:100368004FF4A8400C46C4F20000012101F03EFD04
:100378004FF4A8400121C4F20000C0F2030101F0CB
:1003880049FE0028F4D04FF4A840C4F20000D02160
:10039800002201F047FD4FF4A8408221C4F200007A
:1003A800C0F2070101F036FE0028F4D04FF4A8404F
:1003B8002946C4F2000001F0C7FD4FF4A84084218B
:1003C800C4F20000C0F2070101F024FE0028F4D0B6
:1003D8004FF4A840C4F20000012101F007FD4FF4DA
:1003E800A8400121C4F20000C0F2030101F012FE8E
:1003F8000028F4D04FF4A840C4F20000D021012214
:1004080001F010FD4FF4A8400221C4F20000C0F230
:10041800030101F0FFFD0028F4D04FF4A840C4F216
:100428000000002101F008FD4FF4A8404021C4F26B
:100438000000C0F2030101F0EDFD0028F4D04FF4F4
:10044800A840C4F2000001F081FD20704FF4A840DC
:10045800C4F200000121BDE8384001F0D5BC00BF5E
:1004680009284FF490428CBF00F1370100F13001A8
:10047800C4F2000213885B06FCD54FF4904089B2A1
:10048800C4F2000001F0EABA10B504460009FFF70B
:10049800E7FF04F00F00BDE81040E1E738B5017848
:1004A80089B14FF490440546C4F2000423885A06E3
:1004B800FCD54FF49040C4F2000001F0CFFA15F8D3
:1004C800011F0029F2D138BD2DE9F0472DED028B2F
:1004D800B5EE400AF1EE10FA86B0B0EE408A8146D9
:1004E8008A4600F08A80B5EEC00A06EE900AF1EE60
:1004F80010FA44BFB1EE408A2D23B2EE040AF8EE9A
:10050800660A46BF8DF800300DF101076F4602F00C
:1005180075FFB4EEC80AF1EE10FA51D9B9F1000F1F
:100528002DD009F101063E447B1C0124B2EE047A69
:10053800202180EE070AC8EE007AFCEEE77A17EE73
:10054800902A002A14BF002404F0010402F13005A7
:1005580044B1B4EEC70AF1EE10FAA4BF03F8011CC7
:10056800012408DA06EE902AF8EE667A03F8015CB0
:10057800A0EE678A00240133B342DAD14F44BAF1BE
:10058800000F41D03B462E223A7003EB0A00013798
:10059800B2EE047A28EE078AFCEEC87A17EE901AB3
:1005A80001F1300203F8012FF8EE677A834238EE42
:1005B800678AEFD1002307F80A309DF8003005E07C
:1005C80023233B7000229DF800307A706A4633B1CD
:1005D8000DF101031A46013311780029FAD10A21D5
:1005E80000230D246846147051709370FFF756FF6E
:1005F80006B0BDEC028BBDE8F087302200238DF8F1
:1006080000208DF80130E3E787F800A09DF800305E
:10061800DCE700BF46F2100048F2200110B5C4F232
:100628000200C1F2000100F0DBFCA0B346F21000AA
:1006380048F22001C4F20200C1F2000100F0FCFC03
:100648004FF4A8400022C4F200004FF4E06101F02A
:10065800D7FC4FF4A840C4F20000002101F0A8FC28
:1006680046F21000C4F20200002100F00FFC40F234
:1006780078444FF4A840C2F20004C4F200000121FB
:1006880001F0C2FB94E8050004F1080101F008FD3F
:100698000323A36110BD44F29400C0F60000FFF7E5
:1006A800FDFE44F2BC00C0F60000FFF7F7FE40F282
:1006B8007843C2F200039869C0B2FFF7E5FE44F23E
:1006C800C400C0F60000FFF7E9FE46F2100048F249
:1006D8002001C1F20001C4F2020000F081FCFFF722
:1006E800D3FE44F2CC00C0F60000FFF7D7FE46F276
:1006F800100044F21001C1F20001C4F2020000F03F
:100708006FFCFFF7C1FE44F2D400C0F60000FFF70B
:10071800C5FE46F2100042F20801C1F20001C4F21F
:10072800020000F05DFCFFF7AFFE44F2DC00C0F60B
:100738000000FFF7B3FE46F2100041F20401C1F2D7
:100748000001C4F2020000F04BFCFFF79DFE44F2EA
:10075800E400C0F60000FFF7A1FE46F210000121F8
:10076800C9F20001C4F2020000F03AFCFFF78CFE67
:1007780044F26010C0F60000FFF790FEFEE700BFED
:100788004FF4A84070B5C4F2000001F04FFC40F2ED
:100798007844C2F2000483070546A6690CD5012EE9
:1007A8004FF4A8404AD0C4F200004FF4C0610022C0
:1007B800BDE8704001F024BC012E03D035F440336D
:1007C80043D170BD6807F9D54FF4A84002233146DC
:1007D800C4F20000A36101F009FB4FF4A840C4F281
:1007E800000001F023FCC107F7D54FF4A840C4F27C
:1007F8000000D021012201F015FB63684FF4A840E6
:10080800012BC4F2000047D9012101F015FB4FF478
:10081800A840C4F20000012101F0D8FB4FF4A84021
:10082800C4F20000012101F0C3FB46F21000C4F23B
:1008380002000121BDE8704000F028BB217FC4F20E
:100848000000BDE8704001F07FBB44F2EC00C0F648
:100858000000FFF723FE44F2BC00C0F60000FFF7DB
:100868001DFEF0B2FFF710FE44F22410C0F600009F
:10087800FFF714FEC5F30740FFF706FEC5F3072090
:10088800FFF702FEE8B2FFF7FFFD44F26010C0F682
:100898000000FFF703FEFEE7002101F0CDFABDE7F7
:1008A80008B540F27843C2F200031B6A0BB19847BF
:1008B80008BD4FF49042C4F2000213885906FCD5D3
:1008C8004FF49040C4F20000212101F0C7F844F22F
:1008D8003F23C0F20F0300BF1A46013B002AFAD19A
:1008E80008BD00BF08B54FF49042C4F20002138857
:1008F8005806FCD54FF49040C4F20000452101F0A1
:10090800ADF844F23F23C0F20F0300BF1A46013B83
:10091800002AFAD108BD00BF08B540F27843C2F2F8
:1009280000035B6A0BB1984708BD4FF49042C4F2CC
:10093800000213885B06FCD54FF49040C4F2000017
:100948007C2101F08BF844F23F23C0F20F0300BF73
:100958001A46013B002AFAD108BD00BF4FF46D4288
:10096800CEF200024FF46053D2F88810C4F20203AA
:1009780041F47001C2F888101968002241F00101A1
:1009880019609A60186843F2100120F08470C2F26E
:10099800004120F4803018605960196882B021F451
:1009A80080211960DA60009201921A6842F480325C
:1009B8001A601A4603E0009BB3F5A06F09D01368CC
:1009C80003F400330193009B01330093019B002B38
:1009D800F1D04FF46053C4F202031B6813F40033E0
:1009E80018BF01230193019B012B08D04FF46D43DD
:1009F800CEF200034FF000629A6002B070474FF4E5
:100A08006053C4F202034FF4E042196CC4F20002CE
:100A180041F080511964116841F4804111609A686D
:100A28009A609A6842F400429A60996845F20842CE
:100A380041F4A051C0F2407299605A601A6842F0BD
:100A480080721A6019460A684FF460539201C4F222
:100A58000203F8D54FF47052C4F2020240F2056165
:100A680011609A6822F003029A609A6842F00202C2
:100A78009A609A6802F00C02082AFAD1B6E700BF19
:100A88004FF46053C4F202039A6802F00C02042A7D
:100A980036D0082A12D04FF41051C0F2F4014FF4A6
:100AA8006052C4F2020240F204039268C2F20003E8
:100AB800C2F303129A5CD1401961704758685A68AA
:100AC80010F4800F586815BF47F640034FF41053D1
:100AD800C0F27D13C0F2F40302F03F02B3FBF2F15F
:100AE8004FF46053C4F20203C0F388105B68C3F389
:100AF8000143013301FB00F15B00B1FBF3F1CEE7E9
:100B080047F64001C0F27D11C9E700BF7C420008EA
:100B180000000020580400205C040020A4040020E9
:100B28004FF46D4340F0BF60CEF2000340F4003054
:100B3800D8607047C37870B47BB902784FF46143CA
:100B48005109203102F01F020120CEF2000300FA01
:100B580002F243F8212070BC70474FF46D43CEF287
:100B680000034678DA6884780378D243C2F3022215
:100B7800C2F104010F25C9B206FA01F145FA02F2E1
:100B8800C9B222400A4303F1604303F561431201ED
:100B9800D2B283F8002302784FF4614302F01F01B8
:100BA80001205209CEF2000300FA01F143F82210A5
:100BB80070BC704721F060414FF46D4321F07F0114
:100BC800CEF2000308439860704700BF4FF46D43AE
:100BD800CEF200031A6919B922EA000018617047B9
:100BE80010431861704700BF4EF21003CEF20003A5
:100BF80004281A680CBF42F0040222F004021A60AA
:100C0800704700BF10B446F210020468C4F2020232
:100C18000023904224F00104046003604360836071
:100C2800C360036104BF4FF4C043C4F202034FF032
:100C3800210108BF3D22416108BF9A6000F0A280EF
:100C480046F22803C4F20203984201BF4FF4C0439E
:100C5800C4F202034FF474629A6000F0938046F283
:100C68004003C4F20203984201BF4FF4C043C4F2E8
:100C780002034FF474129A6000F0848046F258031D
:100C8800C4F20203984201BF4FF4C043C4F2020306
:100C98004FF074629A6075D046F27003C4F2020392
:100CA80098427BD046F28803C4F2020398427ED071
:100CB80046F2A003C4F20203984266D046F2B80393
:100CC800C4F20203984201BF4FF4C043C4F20203C6
:100CD8004FF03D52DA6055D046F21043C4F2020399
:100CE800984201BF4FF4C843C4F202033D229A6000
:100CF80048D046F22843C4F20203984201BF4FF499
:100D0800C843C4F202034FF474629A603AD046F2C0
:100D18004043C4F20203984201BF4FF4C843C4F2EF
:100D280002034FF474129A602CD046F25843C4F26E
:100D38000203984201BF4FF4C843C4F202034FF0C4
:100D480074629A601ED046F27043C4F2020398425D
:100D580037D046F28843C4F2020398423AD046F2AA
:100D6800A043C4F2020398423ED046F2B843C4F20C
:100D78000203984201BF4FF4C843C4F202034FF084
:100D88003D52DA605DF8044B70474FF4C043C4F23B
:100D980002030022C2F23D02DA60F3E74FF4C043D7
:100DA800C4F202033D22C2F20002DA60EAE74FF41D
:100DB800C043C4F202034FF47462C2F20002DA6064
:100DC800E0E74FF4C843C4F202033D22C2F2000236
:100DD800DA60D7E74FF4C843C4F202034FF47462F1
:100DE800C2F20002DA60CDE74FF4C843C4F202034E
:100DF8000022C2F23D02DA60C4E700BFCA680B688D
:100E0800D0F800C02DE9F0014F698E69CD690C6AF0
:100E180042EA030848EA07073E434B6A0F6B35432B
:100E28002C4344EA03028C6A42EA04034A6B8C6B43
:100E380048F23F061343CFF21C0623430CEA06068A
:100E48001E4306604569CE6A0C694A688B6825F0BE
:100E5800070547EA06012943416144608260BDE80D
:100E6800F001C360704700BF0023036043608360E4
:100E7800C360036143618361C36103624362836248
:100E8800C362036343638363704700BF036819B990
:100E980023F001030360704743F0010303607047C8
:100EA800036819B923F400430360704743F400430F
:100EB80003607047036819B923F020030360704783
:100EC80043F020030360704741607047406880B278
:100ED800704700BF036822B923F40023036001614F
:100EE800704743F40023036001617047036819B930
:100EF80023F480230360704743F480230360704722
:100F08000AB9C16070470161704700BF0068C0F34B
:100F1800C0407047006800F001007047406900F069
:100F28003800704710B44FF4C84246F20F444FF4EB
:100F3800C043C4F20203C4F20204C4F20202A04293
:100F48008CBF104618468B004CBF436803685DF899
:100F5800044B21F0F02121F0821119420CBF00202E
:100F68000120704710B44FF4C84246F20F444FF4C2
:100F7800C043C4F20204C4F20202C4F20203A04253
:100F88008CBF1046184611F0005F21F0F02121F0C7
:100F9800821114BFC16081605DF8044B704700BFC7
:100FA8000B060CD54369AAB143F08003802943613D
:100FB8000FD0036801F01E011943016070478029B2
:100FC80007D0002AF5D1036801F01E0123EA0101C8
:100FD8000160704723F0800380294361F3D1704793
:100FE80070B44FF4C04246F20F454FF4C84421F0A4
:100FF800F023C4F20205C4F20204C4F2020223F090
:10100800C316A84288BF224696B1046804F01E049D
:1010180004EAD12489004CBF5268126823F0821375
:1010280013EA020002D0201C18BF012070BC7047D0
:10103800446904F08004EDE710B44FF4C84246F266
:101048000F444FF4C043C4F20204C4F20202C4F2D3
:101058000203A0428CBF1046184611F0005F21F031
:10106800F02121F0821114BFC16081605DF8044B4A
:10107800704700BF4FF46053C4F20203002219689E
:1010880041F0010119609A60186843F2100120F0DC
:101098008470C2F2004120F48030186059601968E9
:1010A80021F480211960DA60704700BF43F602031B
:1010B800C4F2020300221A701870704782B000232D
:1010C8004FF460520193C4F2020213689B030FD4D9
:1010D800019B01330193019BB3F5A06FF5D14FF448
:1010E8006053C4F202031868C0F3404002B070476E
:1010F800019B01330193019BF1E700BF4FF460535B
:10110800C4F202031A6822F0F80242EAC00018602A
:10111800704700BF0023C4F247231860704700BF20
:1011280043F67003C4F20203002201281A701A70F1
:1011380005D0042802D105221A707047704718702C
:10114800704700BF4FF46863C4F2472318607047C4
:1011580010B4019C40EA04605B0801434FF46054FA
:10116800C4F20204013B41EA821242EA034363608B
:101178005DF8044B704700BF6023C4F24723186032
:10118800704700BF4FF460530907C4F2020341EAF5
:101198008010C3F8840070476823C4F2472318609E
:1011A800704700BF4C23C4F247231860704700BF44
:1011B8004FF46053C4F202039A6822F0EC621143C0
:1011C80008439860704700BF4FF46053C4F20203AD
:1011D8009A6822F07842114308439860704700BF2C
:1011E8004FF46053C4F202039A6822F003021043DA
:1011F800986070474FF46053C4F20203986800F097
:101208000C0070474FF46053C4F202039A6822F04E
:10121800F0021043986070474FF46053C4F2020321
:101228009A6822F4E0521043986070474FF4605374
:10123800C4F202039A6822F4604242EAC00098604D
:10124800704700BF4FF46053C4F2020310B49A68A9
:1012580002F00C02042A24D0082A28D04FF4105196
:10126800C0F2F40101604FF46052C4F2020240F28D
:1012780018039468C2F20003C4F303141C5DE14030
:1012880041609468C4F382241C5D21FA04F48460EC
:1012980092685DF8044BC2F342329B5CD940C1604E
:1012A800704747F64001C0F27D110160DBE75C68DA
:1012B8005A6814F4800F5C6815BF47F640034FF472
:1012C8001053C0F27D13C0F2F40302F03F02B3FBE7
:1012D800F2F14FF46053C4F20203C4F388145B685C
:1012E800C3F30143013301FB04F15B00B1FBF3F1EC
:1012F8000160B8E700F44073B3F5407F0CD14FF4B8
:101308006053C4F2020320F070419A6821F44071DE
:1013180022F4F8120A439A604FF46053C4F20203AD
:10132800C0F30B001A6F10431867704740F63C6310
:10133800C4F24723186070474FF46463C4F247232C
:10134800186070474FF4AE73C4F2472318607047B3
:101358004FF46053C4F202031A6B19B922EA000071
:101368001863704710431863704700BF4FF4605309
:10137800C4F202035A6B19B922EA00005863704795
:1013880010435863704700BF4FF46053C4F2020320
:101398009A6B19B922EA0000986370471043986362
:1013A800704700BF4FF46053C4F202031A6C19B9B6
:1013B80022EA00001864704710431864704700BFA1
:1013C8004FF46053C4F202035A6C19B922EA0000C0
:1013D8005864704710435864704700BF4FF4605317
:1013E800C4F202031A6919B922EA000018617047A9
:1013F80010431861704700BF4FF46053C4F20203F2
:101408005A6919B922EA00005861704710435861B7
:10141800704700BF4FF46053C4F202039A6919B9C8
:1014280022EA00009861704710439861704700BF36
:101438004FF46053C4F202031A6A19B922EA000091
:101448001862704710431862704700BF4FF460532A
:10145800C4F202035A6A19B922EA000058627047B6
:1014680010435862704700BF4FF46053C4F2020340
:101478001A6D19B922EA00001865704710431865FB
:10148800704700BF4FF46053C4F202035A6D19B994
:1014980022EA00005865704710435865704700BF3E
:1014A8004FF46053C4F202039A6D19B922EA00009E
:1014B8009865704710439865704700BF4FF46053B4
:1014C800C4F202031A6E19B922EA000018667047BE
:1014D80010431866704700BF4FF46053C4F202030C
:1014E8005A6E19B922EA00005866704710435866C8
:1014F800704700BF43F60D03C4F202031A7819B906
:1015080022EA00001870704710431870704700BF37
:101518004309012B0ED0022B4FF46053C4F202038F
:1015280000F01F000CBF1B6F5B6F23FA00F000F088
:10153800010070474FF46053C4F2020300F01F002B
:101548001B6823FA00F000F0010070474FF4605365
:10155800C4F202035A6F42F080725A67704700BFA4
:101568004FF46053C4F20203DB6818420CBF00203A
:101578000120704743F60E03C4F202031870704747
:1015880008B50023C4F2020398423CD04FF48063AC
:10159800C4F20203984240D04FF40063C4F202033D
:1015A800984244D04FF44063C4F20203984248D0B2
:1015B8004FF48053C4F2020398424CD04FF4A05326
:1015C800C4F20203984250D04FF4C053C4F202034D
:1015D800984254D04FF4E053C4F20203984258D0D2
:1015E8004FF40053C4F20203984200D008BD4FF4F0
:1015F80080700121FFF7F2FE4FF480700021BDE8F2
:101608000840FFF7EBBE01200146FFF7E7FE012087
:101618000021BDE80840FFF7E1BE02200121FFF7E5
:10162800DDFE02200021BDE80840FFF7D7BE0420F8
:101638000121FFF7D3FE04200021BDE80840FFF791
:10164800CDBE08200121FFF7C9FE08200021BDE812
:101658000840FFF7C3BE10200121FFF7BFFE10208E
:101668000021BDE80840FFF7B9BE20200121FFF79F
:10167800B5FE20200021BDE80840FFF7AFBE40209E
:101688000121FFF7ABFE40200021BDE80840FFF72D
:10169800A5BE80200121FFF7A1FE80200021BDE822
:1016A8000840FFF79BBE00BF00222DE9F007134654
:1016B8000E6801274FF0030804E00133102B02F1F4
:1016C80002022ED007FA03F404EA0605A542F4D173
:1016D800D0F8009091F804C008FA02F4E44304EA50
:1016E8000909C0F80090D0F800900CFA02FA0CF141
:1016F800FF3C5FFA8CFC4AEA0909BCF1010FC0F80B
:10170800009011D9C56891F807C02C40C460C5681D
:101718000CFA02F401332C43102BC46002F10202CC
:10172800D0D1BDE8F0077047D0F808A091F805902F
:1017380091F806C004EA0A0AC0F808A0D0F808A080
:1017480009FA02F949EA0A09C0F80890D0F80490A1
:1017580029EA0505456045680CFA03FC1FFA8CFC6C
:101768004CEA05054560CDE700234FF6FF7202609D
:10177800037143718371C371704700BF82B04FF426
:1017880080330193019B0B430193019BC361C161AA
:10179800019BC361C3690193C369019302B0704798
:1017A800036919420CBF002001207047006980B20C
:1017B800704700BF436919420CBF002001207047E1
:1017C800406980B2704700BF01837047418370470A
:1017D8000AB9418370470183704700BF4161704770
:1017E8004369594041617047CB0800EB830001F021
:1017F800070110B48900046A0F238B4024EA03030D
:101808000362036A5DF8044B8A401343036270471E
:1018180008B54FF48053C4F20103984228D04FF41E
:101828008843C4F2000398422CD04FF49043C4F28A
:101838000003984232D04FF49843C4F20003984210
:1018480038D04FF4A043C4F2000398423ED04FF47E
:10185800A053C4F20103984200D008BD2020012102
:10186800FFF7F4FD20200021BDE80840FFF7EEBD9A
:1018780010200121FFF7EAFD10200021BDE80840F3
:10188800FFF7E4BD4FF400300121FFF7D1FD4FF41D
:1018980000300021BDE80840FFF7CABD4FF48020A2
:1018A8000121FFF7C5FD4FF480200021BDE8084065
:1018B800FFF7BEBD4FF400200121FFF7B9FD4FF43B
:1018C80000200021BDE80840FFF7B2BD4FF48010AA
:1018D8000121FFF7ADFD4FF480100021BDE808405D
:1018E800FFF7A6BD028ACB8822F440521204F0B555
:1018F800120C04461A430F898E8848890D46898937
:101908002282A38923F4B05347EA060223F00C038A
:1019180002431B0492B21B0C1343A381A38A23F432
:1019280040731B041B0C85B00B43A3826846FFF76A
:1019380089FCA6890298039B4FF4A0514FF480526A
:10194800C4F20101C4F20102944218BF8C4232B2BF
:1019580018BF0346002A2A68A08903EB8303B4BF93
:101968005200920003EB8303B3FBF2F348F21F52D9
:10197800C5F2EB12A2FB035100B264254909002805
:1019880001FB1533B5BFDB001B0132333233B5BF62
:10199800A2FB0302A2FB0352C2F34212C2F3431298
:1019A8000901114389B2218105B0F0BD00234FF42C
:1019B80016510C22016042818380C3800381838198
:1019C800704700BF30B40A884D888C88038AC9885C
:1019D8002A43224323F470630A431B0492B21B0C6C
:1019E8001343038230BC7047002303804380838005
:1019F800C3807047838929B923F400531B041B0C47
:101A0800838170479BB243F400538381704700BFC2
:101A1800038B03F47F430383038B9BB21943018336
:101A2800704700BF838919B9C3F30E0383817047D8
:101A38006FEA43436FEA53439BB28381704700BF09
:101A4800838A29B923F400631B041B0C8382704723
:101A58009BB243F400638382704700BFC1F308015F
:101A6800818070478088C0F308007047038A23F09C
:101A78000F031B041B0C0382038A9BB219430182C8
:101A8800704700BF838929B923F002031B041B0C8C
:101A9800838170479BB243F002038381704700BF84
:101AA800838923F400631B041B0C838183899BB205
:101AB80019438181704700BF038A23F020031B0468
:101AC8001B0C0382038A9BB219430182704700BF33
:101AD800038A29B923F480431B041B0C0382704733
:101AE8009BB243F480430382704700BF83899BB253
:101AF80043F0010383817047838A29B923F00803DF
:101B08001B041B0C838270479BB243F0080383823B
:101B1800704700BF038BDBB20383038B9BB243EA9E
:101B280001210183704700BF838A29B923F020036C
:101B38001B041B0C838270479BB243F020038382F3
:101B4800704700BF838A29B923F010031B041B0CBC
:101B5800838270479BB243F010038382704700BFB3
:101B6800838A23F004031B041B0C8382838A9BB2A1
:101B780019438182704700BF838A29B923F0020381
:101B88001B041B0C838270479BB243F002038382C1
:101B9800704700BF838A9BB21AB923EA0101818288
:101BA800704719438182704701F01F0310B4C1F3D5
:101BB80042110124A14204FA03F308BF0C3003D0F8
:101BC80002290CBF1030143004682AB924EA030330
:101BD80003605DF8044B7047234303605DF8044BD2
:101BE800704700BF038819420CBF002001207047CE
:101BF800C94389B201807047C1F3421330B401F080
:101C08001F020124012B04FA02F416D0022B0CBF88
:101C1800028A828A92B2224003880125090A05FABB
:101C280001F19BB219420CBF00200120002A0CBF11
:101C3800002000F0010030BC7047828992B2224037
:101C4800EAE700BF090A012303FA01F1C94389B28F
:101C58000180704708B54FF4A843C4F200039842C6
:101C680018D04FF4B043C4F2000398421ED04FF48A
:101C7800B843C4F20003984200D008BD4FF40000F6
:101C88000121FFF7D5FB4FF400000021BDE8084013
:101C9800FFF7CEBB4FF400100121FFF7C9FB4FF44B
:101CA80000100021BDE80840FFF7C2BB4FF48000D8
:101CB8000121FFF7BDFB4FF480000021BDE808407B
:101CC800FFF7B6BBF0B5044685B068460D46A68852
:101CD800FFF7B8FA4DF6836302992A68C4F21B33FA
:101CE800A3FB010326F03F069F0C3604360C1FFAAF
:101CF80087FC4CEA0606A680238848F2A06023F0F9
:101D080001031B04C0F201001B0C8242238024D86B
:101D18005300B1FBF3F39BB20CF1010C032B98BFFA
:101D28000423A4F820C0A38323886E89A88829895E
:101D3800AA899BB243F001032380238823F481639B
:101D480023F002031B0430431B0C03430A439BB2DA
:101D580092B22380228105B0F0BDE8884BF6FF736C
:101D680098421DBF02EB820202EB8202B1FBF2F342
:101D780002EB42020BBFB1FBF2F39BB29BB243F4FE
:101D88008043C3F30B020AB943F001034FF4967181
:101D980044F6D35201FB07F7C1F2620282FB071235
:101DA8009209013243F400432284BCE7002310B4B3
:101DB8004BF6FF7141F288344FF480420460C180D1
:101DC80082818380038143815DF8044B704700BFA3
:101DD800038829B923F001031B041B0C03807047F7
:101DE8009BB243F001030380704700BF038829B901
:101DF80023F480731B041B0C038070479BB243F4CD
:101E080080730380704700BF038829B923F40073E7
:101E18001B041B0C038070479BB243F400730380C0
:101E2800704700BF1AB901F0FE010182704741F006
:101E380001010182704700BF038829B923F4806338
:101E48001B041B0C038070479BB243F48063038020
:101E5800704700BF838923F0FE031B0401F0FE01D5
:101E68001B0C0B4383817047838929B923F0010335
:101E78001B041B0C838170479BB243F001038381D1
:101E8800704700BF038829B923F040031B041B0CCB
:101E9800038070479BB243F040030380704700BF44
:101EA800038819B9C3F30E03038070476FEA4343ED
:101EB8006FEA53439BB20380704700BF038829B180
:101EC80023F080031B041B0C038070479BB243F074
:101ED80080030380704700BF838BB1F5804F1BBF21
:101EE80023F480431B049BB21B0C08BF43F48043BC
:101EF800838370470388B1F5006F15BF23F400632F
:101F08009BB21B0443F4006318BF1B0C038070478B
:101F18000388B1F5005F15BF23F400539BB21B047F
:101F280043F4005318BF1B0C03807047038829B97A
:101F380023F010031B041B0C038070479BB243F073
:101F480010030380704700BF01827047008AC0B247
:101F5800704700BF038829B923F480531B041B0C66
:101F6800038070479BB243F480530380704700BFDF
:101F78000388B1F5006F15BF23F400639BB21B04FF
:101F880043F4006318BF1B0C03807047038829B90A
:101F980023F020031B041B0C038070479BB243F003
:101FA80020030380704700BF008BC0F307207047F1
:101FB800838829B923F400631B041B0C83807047B2
:101FC8009BB243F400638380704700BF838829B9BC
:101FD80023F480531B041B0C838070479BB243F48B
:101FE80080538380704700BF82B000230193019023
:101FF800019B19440191019B188880B202B0704777
:1020080083889BB21AB923EA01018180704719437A
:1020180081807047828A038B90B240EA034021F0A6
:102028007F4318400B1A584258417047828A038BE5
:1020380090B240EA034020F07F40704782B000230E
:102048000A0F0093019301900092009B21F07F41B9
:1020580053B1019B14330193019B1B6819420CBFB8
:102068000020012002B07047019B1833090C01932E
:10207800F2E700BFC94389B2818270478388808AAA
:1020880080B208409BB206D001F0E06113EA11412A
:102098000CBF002001207047C94389B28182704774
:1020A800844641EA000313F003036DD1403A41D35B
:1020B80051F8043B40F8043B51F8043B40F8043B1A
:1020C80051F8043B40F8043B51F8043B40F8043B0A
:1020D80051F8043B40F8043B51F8043B40F8043BFA
:1020E80051F8043B40F8043B51F8043B40F8043BEA
:1020F80051F8043B40F8043B51F8043B40F8043BDA
:1021080051F8043B40F8043B51F8043B40F8043BC9
:1021180051F8043B40F8043B51F8043B40F8043BB9
:1021280051F8043B40F8043B51F8043B40F8043BA9
:10213800403ABDD2303211D351F8043B40F8043B49
:1021480051F8043B40F8043B51F8043B40F8043B89
:1021580051F8043B40F8043B103AEDD20C3205D359
:1021680051F8043B40F8043B043AF9D2043208D051
:10217800D2071CBF11F8013B00F8013B01D30B88C3
:1021880003806046704700BF082A13D38B078DD0A1
:1021980010F003038AD0C3F10403D21ADB071CBF73
:1021A80011F8013B00F8013B80D331F8023B20F8DD
:1021B800023B7BE7043AD9D3013A11F8013B00F816
:1021C800013BF9D20B7803704B7843708B7883709E
:1021D8006046704781F0004102E000BF83F0004391
:1021E80030B54FEA41044FEA430594EA050F08BFAA
:1021F80090EA020F1FBF54EA000C55EA020C7FEA6E
:10220800645C7FEA655C00F0E2804FEA5454D4EBEA
:102218005555B8BF6D420CDD2C4480EA020281EAB4
:10222800030382EA000083EA010180EA020281EAEC
:102238000303362D88BF30BD11F0004F4FEA01313E
:102248004FF4801C4CEA113102D0404261EB41014D
:1022580013F0004F4FEA03334CEA133302D05242D3
:1022680063EB430394EA050F00F0A780A4F101048F
:10227800D5F1200E0DDB02FA0EFC22FA05F28018C9
:1022880041F1000103FA0EF2801843FA05F35941AF
:102298000EE0A5F120050EF1200E012A03FA0EFC2E
:1022A80028BF4CF0020C43FA05F3C01851EBE37158
:1022B80001F0004507D54FF0000EDCF1000C7EEB75
:1022C80000006EEB0101B1F5801F1BD3B1F5001FB3
:1022D8000CD349085FEA30004FEA3C0C04F10104D2
:1022E8004FEA445212F5800F80F09A80BCF1004FFB
:1022F80008BF5FEA500C50F1000041EB045141EA7D
:10230800050130BD5FEA4C0C404141EB010111F47D
:10231800801FA4F10104E9D191F0000F04BF014628
:102328000020B1FA81F308BF2033A3F10B03B3F106
:1023380020020CDA0C3208DD02F1140CC2F10C0296
:1023480001FA0CF021FA02F10CE002F11402D8BFF4
:10235800C2F1200C01FA02F120FA0CFCDCBF41EAC0
:102368000C019040E41AA2BF01EB0451294330BD8F
:102378006FEA04041F3C1CDA0C340EDC04F114046C
:10238800C4F1200220FA04F001FA02F340EA030043
:1023980021FA04F345EA030130BDC4F10C04C4F189
:1023A800200220FA02F001FA04F340EA0300294669
:1023B80030BD21FA04F0294630BD94F0000F83F4B3
:1023C800801306BF81F480110134013D4EE77FEA96
:1023D800645C18BF7FEA655C29D094EA050F08BFE2
:1023E80090EA020F05D054EA000C04BF19461046C3
:1023F80030BD91EA030F1EBF0021002030BD5FEA07
:10240800545C05D14000494128BF41F0004130BD2E
:1024180014F580043CBF01F5801130BD01F0004582
:1024280045F0FE4141F470014FF0000030BD7FEAF5
:10243800645C1ABF194610467FEA655C1CBF0B46F0
:10244800024650EA013406BF52EA033591EA030F07
:1024580041F4002130BD00BF90F0000F04BF0021FF
:10246800704730B54FF4806404F132044FF0000532
:102478004FF0000150E700BF90F0000F04BF0021AB
:10248800704730B54FF4806404F1320410F0004511
:1024980048BF40424FF000013EE700BF42004FEA0C
:1024A800E2014FEA31014FEA02701FBF12F07F4389
:1024B80093F07F4F81F06051704792F0000F14BF86
:1024C80093F07F4F704730B54FF4607401F00045CA
:1024D80021F0004120E700BF50EA010208BF704721
:1024E80030B54FF000050AE050EA010208BF704716
:1024F80030B511F0004502D5404261EB41014FF47F
:10250800806404F132045FEA915C3FF4DCAE4FF082
:1025180003025FEADC0C18BF03325FEADC0C18BF69
:10252800033202EBDC02C2F1200300FA03FC20FABA
:1025380002F001FA03FE40EA0E0021FA02F1144407
:10254800C1E600BF70B54FF0FF0C4CF4E06C1CEA1C
:1025580011541DBF1CEA135594EA0C0F95EA0C0F91
:1025680000F0DEF82C4481EA030621EA4C5123EA04
:102578004C5350EA013518BF52EA033541F4801133
:1025880043F4801338D0A0FB02CE4FF00005E1FBE6
:1025980002E506F00042E0FB03E54FF00006E1FB30
:1025A80003569CF0000F18BF4EF0010EA4F1FF0473
:1025B800B6F5007F64F5407404D25FEA4E0E6D41B3
:1025C80046EB060642EAC62141EA55514FEAC520C4
:1025D80040EA5E504FEACE2EB4F1FD0C88BFBCF540
:1025E800E06F1ED8BEF1004F08BF5FEA500E50F1F1
:1025F800000041EB045170BD06F0004646EA0101B7
:1026080040EA020081EA0301B4EB5C04C2BFD4EBE8
:102618000C0541EA045170BD41F480114FF0000EE1
:10262800013C00F3AB8014F1360FDEBF002001F04F
:10263800004170BDC4F10004203C35DA0C341BDCC9
:1026480004F11404C4F1200500FA05F320FA04F09B
:1026580001FA05F240EA020001F0004221F00041CF
:1026680010EBD37021FA04F642EB06015EEA430E42
:1026780008BF20EAD37070BDC4F10C04C4F1200572
:1026880000FA04F320FA05F001FA04F240EA020025
:1026980001F0004110EBD37041F100015EEA430EF6
:1026A80008BF20EAD37070BDC4F1200500FA05F216
:1026B8004EEA020E20FA04F301FA05F243EA020395
:1026C80021FA04F001F0004121FA04F220EA0200A4
:1026D80000EBD3705EEA430E08BF20EAD37070BDEA
:1026E80094F0000F0FD101F00046400041EB0101CA
:1026F80011F4801F08BF013CF7D041EA060195F0AC
:10270800000F18BF704703F00046520043EB030365
:1027180013F4801F08BF013DF7D043EA0603704752
:1027280094EA0C0F0CEA135518BF95EA0C0F0CD05D
:1027380050EA410618BF52EA4306D1D181EA0301A3
:1027480001F000414FF0000070BD50EA410606BF9D
:102758001046194652EA430619D094EA0C0F02D1E2
:1027680050EA013613D195EA0C0F05D152EA033627
:102778001CBF104619460AD181EA030101F0004145
:1027880041F0FE4141F470014FF0000070BD41F08E
:10279800FE4141F4780170BD70B54FF0FF0C4CF468
:1027A800E06C1CEA11541DBF1CEA135594EA0C0F87
:1027B80095EA0C0F00F0A7F8A4EB050481EA030ED4
:1027C80052EA03354FEA013100F088804FEA0333BB
:1027D8004FF0805545EA131343EA12634FEA022289
:1027E80045EA111545EA10654FEA00260EF000414A
:1027F8009D4208BF964244F1FD0404F5407402D29C
:102808005B084FEA3202B61A65EB03055B084FEA2C
:1028180032024FF480104FF4002CB6EB020E75EB29
:10282800030E22BFB61A754640EA0C005B084FEA51
:102838003202B6EB020E75EB030E22BFB61A7546CE
:1028480040EA5C005B084FEA3202B6EB020E75EB19
:10285800030E22BFB61A754640EA9C005B084FEA91
:102868003202B6EB020E75EB030E22BFB61A75469E
:1028780040EADC0055EA060E18D04FEA051545EA8D
:1028880016754FEA06164FEAC30343EA52734FEA36
:10289800C2025FEA1C1CC0D111F4801F0BD141EAAF
:1028A80000014FF000004FF0004CB6E711F4801F14
:1028B80004BF01430020B4F1FD0C88BFBCF5E06FF4
:1028C8003FF6AFAEB5EB030C04BFB6EB020C5FEA04
:1028D800500C50F1000041EB045170BD0EF0004E59
:1028E8004EEA113114EB5C04C2BFD4EB0C0541EA8B
:1028F800045170BD41F480114FF0000E013C90E688
:1029080045EA060E8DE60CEA135594EA0C0F08BF4B
:1029180095EA0C0F3FF43BAF94EA0C0F0AD150EA4A
:1029280001347FF434AF95EA0C0F7FF425AF1046DD
:1029380019462CE795EA0C0F06D152EA03353FF405
:10294800FDAE1046194622E750EA410618BF52EA82
:1029580043067FF4C5AE50EA41047FF40DAF52EA56
:1029680043057FF4EBAE12E74FF0FF3C06E000BFF3
:102978004FF0010C02E000BF4FF0010C4DF804CD00
:102988004FEA410C7FEA6C5C4FEA430C18BF7FEAC0
:102998006C5C1BD001B050EA410C0CBF52EA430CEE
:1029A80091EA030F02BF90EA020F0020704710F16E
:1029B800000F91EA030F58BF994208BF90422CBFFD
:1029C800D8176FEAE37040F0010070474FEA410CF6
:1029D8007FEA6C5C02D150EA013C07D14FEA430C14
:1029E8007FEA6C5CD6D152EA033CD3D05DF8040B85
:1029F800704700BF8446104662468C4619466346B7
:102A080000E000BF01B5FFF7B7FF002848BF10F18D
:102A1800000F01BD4DF808EDFFF7F4FF0CBF0120D2
:102A280000205DF808FB00BF4DF808EDFFF7EAFF4E
:102A380034BF012000205DF808FB00BF4DF808ED09
:102A4800FFF7E0FF94BF012000205DF808FB00BFFE
:102A58004DF808EDFFF7CEFF94BF012000205DF888
:102A680008FB00BF4DF808EDFFF7C4FF34BF012095
:102A780000205DF808FB00BF4FEA4102B2F1E043D5
:102A880024BFB3F5001CDCF1FE5C0DD901F0004C4D
:102A98004FEAC0024CEA5070B2F1004F40EB83009D
:102AA80008BF20F00100704711F0804F21D113F1C9
:102AB8003872BCBF01F00040704741F480114FEA02
:102AC8005252C2F11802C2F1200C10FA0CF320FA8B
:102AD80002F018BF40F001004FEAC1234FEAD323A8
:102AE80003FA0CFC40EA0C0023FA02F34FEA430312
:102AF800CCE77FEA625307D150EA01331EBF4FF09B
:102B0800FE4040F44000704701F0004040F0FE40B5
:102B180040F40000704700BF2DE9F0432DED048B11
:102B280048F27F4397B0C0F21E0300BF1C46013B2A
:102B3800002CFAD14FF480200121FEF733FC082045
:102B48000121FEF705FC4FF44060012502274FF4F0
:102B5800807303A9C4F2020003938DF810708DF8F6
:102B680011708DF812408DF81350FEF79DFD4FF44B
:102B780040600722C4F202000821FEF735FE07AEC6
:102B88004FF490404FF4E1334FF008083146C4F257
:102B980000000793ADF82680ADF82040ADF822403C
:102BA800ADF82440ADF82840FEF79CFE4FF4904065
:102BB8002946C4F20000FEF71DFF44F23010C0F6AB
:102BC8000000FDF76BFC29464FF40010FEF7EAFB06
:102BD80038462946FEF7BCFB29464FF40010FEF79D
:102BE80027FC4FF400102146FEF722FC29464FF43B
:102BF8000010FEF7ADFB4FF480604FF4C073C4F2D1
:102C0800020001A901938DF808708DF809708DF8FC
:102C18000A508DF80B50FEF747FD4FF4806041468F
:102C2800C4F202000422FEF7DFFD4FF480600422A4
:102C3800C4F202000721FEF7D7FD46F210003D213D
:102C4800C4F20200C1F28001FEF78CF946F21000CE
:102C58002146C4F20200FEF719F946F21000C4F248
:102C68000200FDF7CFFFDFF838940C9445F21043CB
:102C780046F210004FF4806C4FF4803EC4F200031B
:102C88000E220321C4F202004FF000780427CDF889
:102C980034C0CDF844E008930B92CDF81C8012970D
:102CA80013910E940F941094149415940A94CDF8DB
:102CB8002490FDF7A7FF46F210004FF480473146F5
:102CC800C4F20200FEF79AF838044FF4D453C0F265
:102CD80006034BF6FF7203A940F4A8400393ADF82E
:102CE8001220ADF81040ADF81440ADF81640ADF81C
:102CF8001870FEF7E7FF38044FF4E061224640F40D
:102D0800A840FFF77DF94FF44070FDF709FF4FF039
:102D18000A081F2368468DF800308DF803508DF897
:102D280002408DF80180FDF705FF202368468DF8E5
:102D380000308DF801808DF803508DF80240FDF7C2
:102D4800F9FE46F2100010212246C4F20200FEF7F6
:102D580027F90B2368468DF800308DF801808DF82F
:102D680003508DF80240FDF7E5FE46F210002A46B2
:102D7800C4F202001021FEF713F9380440F4A84009
:102D88002946FFF725F848F27F43C0F21E0300BF2B
:102D98001A46013B002AFAD16B200221FDF788FA76
:102DA80049F2DF33C0F2040300BF1A46013B002A90
:102DB800FAD16B203146FDF7D1FA9DF81C30022B71
:102DC800EAD16B208221FDF773FA49F2DF33C0F2B2
:102DD800040300BF1A46013B002AFAD16B20314692
:102DE800FDF7BCFA9DF81C30402BD5D16B20022191
:102DF800FDF75EFA49F2DF33C0F2040300BF1C4658
:102E0800013B002CFAD16B203146FDF7A7FA9DF85B
:102E18001C30022BC0D121461A20FDF749FA19208F
:102E28000721FDF745FA1B201821FDF741FA1C2060
:102E38001821FDF73DFA21462320FDF739FA3720FE
:102E48002021FDF735FA38201121FDF731FA214606
:102E58006A20FDF72DFA44F24410C0F60000FDF791
:102E68001DFB31467520FDF779FA9DF81C4044F2A8
:102E78006410C0F60000FDF711FB2046FDF704FBC7
:102E880031466B20FDF76AFA9DF81C4044F27C102D
:102E9800C0F60000FDF702FB2046FDF7F5FA40F208
:102EA800784540F21D6840F28977DFED799A9FED09
:102EB800799ADFED798A9FED798AC2F20005C0F62A
:102EC8000008C0F6000744F29810C0F60000FDF7AD
:102ED800E5FA01234FF4A8403B240E221946C4F218
:102EE8000000C5F824802F622E60AB612C776A60E1
:102EF800FEF77CFF4FF4A840C4F20000FFF796F8F5
:102F0800C207F7D54FF4A840C4F20000D021002230
:102F1800FEF788FF4FF4A840C4F200004FF4407158
:102F28000122FFF76DF8AC69032CFCD19DF8233022
:102F38009DF8229044F2B01043EA0929C0F6000037
:102F48000FFA89F9FDF7AAFA00EE109AB8EEC00A4E
:102F5800214680EE290A022030EE090AFDF7B4FA6C
:102F68009DF81D309DF81C9044F2B81043EA0929D9
:102F7800C0F600000FFA89F9FDF790FA07EE909A6B
:102F8800B8EEE70A214620EE280A0220FDF79CFA4F
:102F98009DF81F309DF81E9044F2C41043EA092999
:102FA800C0F600000FFA89F9FDF778FA07EE909A53
:102FB800B8EEE70A214620EE280A0220FDF784FA37
:102FC8009DF821309DF8209044F2D01043EA092959
:102FD800C0F600000FFA89F9FDF760FA07EE909A3B
:102FE800B8EEE70A214620EE280A0220FDF76CFA1F
:102FF8009DF825309DF8244044F2DC1043EA04246F
:10300800C0F6000024B2FDF749FA07EE904AB8EE80
:10301800E70A022180EE080A0420FDF755FA9DF818
:1030280027309DF8264044F2E81043EA0424C0F60D
:10303800000024B2FDF732FA07EE904AB8EEE70A2C
:10304800022180EE080A0420FDF73EFA9DF8293097
:103058009DF8284044F2F41043EA0424C0F6000026
:1030680024B2FDF71BFA07EE904AB8EEE70A0420EF
:1030780080EE080A0221FDF727FA49F27F63C0F2C1
:10308800980300BF1A46013B002AFAD11BE700BF8C
:103098000000AA43B81E12420000003A6F12834192
:1030A80080040020002103E00B4B5B58435004319F
:1030B8000A480B4B42189A42F6D30A4A02E0002308
:1030C80042F8043B084B9A42F9D3FDF747FC00F05D
:1030D8003FF8FFF721FD70477C4200080000002000
:1030E800580400205C040020A4040020FEE700002F
:1030F800014600200246034600F0A2B808B50021A8
:10310800044600F0FFF844F20423C0F600031868F0
:10311800C36B03B19847204601F0A2F838B544F2D2
:103128007C2444F27825C0F60005C0F60004641B30
:10313800A41018BF05EB840505D0013C55F8043DE3
:103148009847002CF9D1BDE8384001F079B800BFA4
:1031580070B544F2702644F27025C0F60005C0F63A
:103168000006761BB6101CBF043D002405D00134B0
:1031780055F8043F9847A642F9D144F2782644F21C
:103188007025C0F60005C0F60006761B01F052F85F
:10319800B6101CBF043D002406D0013455F8043F86
:1031A8009847A642F9D170BD70BD00BFF0B484073E
:1031B80043D0541E002A3ED0CDB2034603E0621E1F
:1031C800002C38D0144603F8015B9A07F7D1032C7A
:1031D8002AD9CDB245EA05250F2C45EA054515D96A
:1031E800A4F110073F0903F1100606EB07161A466B
:1031F800156055609560D5601032B242F8D104F080
:103208000F040137032C03EB07130DD91E46224682
:10321800043A032A46F8045BFAD8221F22F0030274
:103228000432134404F003042CB1C9B21C4403F85B
:10323800011BA342FBD1F0BC704714460346C6E706
:10324800F0B544F20424C0F6000485B02668D6F828
:1032580048410746002C44D065681F2D21DD40F207
:103268000004C0F200041CB94FF0FF3005B0F0BDF7
:103278004FF4C870039102920193AFF30080039951
:10328800029A019B04460028EED0D6F84851002047
:10329800256060600546C6F84841C4F88801C4F84E
:1032A8008C013FB9AB1C00200135656044F8231040
:1032B80005B0F0BD04EB85004FF0010CC0F8882084
:1032C800D4F888610CFA05F21643022FC4F8886115
:1032D800C0F8083102BFD4F88C311A43C4F88C21E5
:1032E800E0E706F5A674C6F84841B5E740F20003E2
:1032F800C0F200032BB143F22510C0F60000FFF71F
:10330800F7BE70472DE9F04F44F20423C0F60003DE
:1033180085B01B68029040F200020193C0F20002DF
:1033280003F5A4730F46039300924FF00109019A25
:10333800D2F84881B8F1000F1AD0DDF80CA0D8F8FF
:1033480004305C1E5FBF08F188059E1C05EB8305F1
:1033580008EB86060AD477B1EB6FBB420BD0013C71
:10336800631CA5F10405A6F10406F4D1009B7BBB00
:1033780005B0BDE8F08FD8F8042056F8043C013AAF
:10338800A24216BF0022C8F8044046F8042C002BBD
:10339800E5D0D8F88811D8F804B009FA04F20A423E
:1033A80010D0D8F88C110A420ED1029855F8041C96
:1033B8009847D8F804305B45B9D1DAF8003043456E
:1033C800CDD0B4E79847F4E755F8040C9847F0E7F0
:1033D800D8F804306BB9D8F8003063B14046CAF861
:1033E8000030AFF30080DAF80080B8F1000FA6D102
:1033F800BEE7D8F80030C2469846F6E770B52DED1E
:10340800048B40F25446C2F200068AB0B0EE409AED
:10341800B0EE608A00F0ACF996F900300133F0EEB6
:10342800408A04D0B0EE480A00F090FD28B9B0EE0A
:10343800680A0AB0BDEC048B70BDB0EE490A00F012
:1034480085FD034678BBB5EE408AF1EE10FAEED161
:1034580044F20822C0F60002012119EE100A08936E
:103468008DE80600FFF71AF8CDE9020118EE100AF8
:10347800FFF714F896F9004000230022C3F6F07312
:10348800B4F1FF3F18BF022CCDE90401CDE90623B2
:1034980036D1DDE90601FFF7EFFA00EE100A0AB0AF
:1034A800BDEC048B70BDB5EE409AF1EE10FA34D144
:1034B800B5EE408AF1EE10FA73D144F20823C0F653
:1034C80000030022012119EE100A8DE80A00089273
:1034D800FEF7E4FFCDE9020118EE100AFEF7DEFF61
:1034E80096F9004000220023CDE90401CDE9062326
:1034F80034B100230022C3F6F073CDE90623C8E7F0
:10350800684600F077FC00287DD0089B002BC0D0CF
:1035180000F09EFE089B0360BBE7B0EE680A00F06F
:103528000BFD0446002873D0F5EE408AF1EE10FA40
:103538007FF47DAFB0EE490A00F0FEFC00283FF4AE
:1035480076AFB0EE480A00F0F7FC00283FF46FAF02
:1035580044F20823C0F600030022042119EE100AE1
:103568008DE80A000892FEF799FFCDE9020118EEEE
:10357800100AFEF793FF96F9004000220023022C60
:10358800CDE90401CDE9062300F09B80684600F0F0
:1035980031FC002800F09580089B002B3FF479AFA0
:1035A800B6E7B0EE480A00F0C7FC00283FF43FAF8A
:1035B800B5EEC08AF1EE10FA7FF539AF44F2082370
:1035C800C0F600030022012119EE100A8DE80A0056
:1035D8000892FEF763FFCDE9020118EE100AFEF724
:1035E8005DFF3478CDE9040100220023002C3BD094
:1035F800CFF6F073022CCDE9062337D100F028FE70
:1036080021230360C8E700F023FE212303607CE741
:10361800B0EE490A00F090FC002885D0B0EE480AC8
:1036280000F08AFC00283FF47FAFB0EE680A00F093
:103638008DFC44F208230246C0F60003E0B90121DC
:1036480019EE100A08928DE80A00FEF727FFCDE967
:10365800020118EE100AFEF721FF3478CDE90401C3
:10366800002C33D100220023CDE90623684600F060
:10367800C1FB002890D1C1E7032219EE100A8DE89A
:103688000C000894FEF70AFFCDE9020118EE100AB3
:10369800FEF704FF96F90030CDE904010BBB4FF6A5
:1036A800FF73B5EEC09A4FF06042C4F2EF73F1EECB
:1036B80010FACDE906233CD496F90030022B7FF4AA
:1036C80065AF00F0C5FD2223036065E700200021F7
:1036D80002460B46FFF760F8022CCDE906018DD0B3
:1036E800C4E70023B5EEC09A0022C7F6F073F1EEE6
:1036F80010FACDE90623DFD5F6EE007A68EE277AD0
:1037080017EE900AFEF7CAFE04460D4645EC104B2C
:1037180000F072FB2046294653EC102BFFF77AF98C
:103728000028C9D100230022CFF6F073CDE9062383
:10373800C2E7F6EE007A68EE277A17EE900AFEF7EF
:10374800ADFE04460D4645EC104B00F055FB2046F7
:10375800294653EC102BFFF75DF90028ACD14FF642
:10376800FF734FF06042CCF2EF73CDE90623A3E775
:103778002DE9F04710EE907A37F000452DED028BD9
:1037880010EE904A10EE108A4BD028F00046B5F1A2
:10379800FF4FD8BFB6F1FF4F10EE109AD4BF0023E9
:1037A80001233BDCB8F1000FA8BF9A4672DBB5F1E4
:1037B800FF4F46D0B5F17E5F4DD0B4F1804F04BFC6
:1037C80006EE108A26EE060A2DD0B4F17C5F00EED4
:1037D800108A02D1B9F1000F7EDA00F0A5FB002EA5
:1037E80045D029F04043B3F17E5F40D04FEAD97904
:1037F80009F1FF395AEA090274D0B5F19A4F40F33A
:10380800AD804FF6F773C3F67F739E4200F30F82C5
:10381800002CC0F214829FED3A0A04E0B6F17E5FF4
:1038280005D1B7EE000ABDEC028BBDE8F087BDEC10
:10383800028B44F2AC10C0F60000BDE8F04700F07F
:10384800A1BBB6F17E5FECD03EDD002CA8BF00EE38
:10385800107AE8DADFE7002CA8BF00EE108AE2DA77
:1038680005EE908AB7EE000A80EE250ADBE7002C09
:10387800BCBFF7EE007A87EE800AB9F1000FD2DA02
:10388800A6F17E565AEA060633D130EE400A80EE9B
:10389800000AC8E7B5F1974F13DAB5F17E5F0EDB82
:1038A800EA15C2F1960245FA02F101FA02F2AA42B9
:1038B80004BF01F00101C1F1020A3FF47BAF9A464F
:1038C80078E74FF0020A72E7002CBCBF04EE107ACA
:1038D800B1EE440A9FDAA6E7BDEC028BBDE8F047DB
:1038E80000F036BA04EE108A34EE440A80EE000A7C
:1038F80099E7BAF1010F08BFB1EE400A93E700BF9C
:10390800000000000000804B42F1533E55326C3EEF
:1039180005A38B3EB76DDB3E9A99193F4F38763F2A
:10392800A0C39D360038763F8CBEBF351872313F34
:103938000072313F4CBB31330EEADDB555B38A38DE
:10394800610B36BBABAA2A3E3CAA3833CAF249718E
:103958006042A20DABAAAA3E3BAAB83FB6F5000F3B
:10396800BCBF5FED187A60EE277A4CF27143B8BF9E
:1039780017EE906AC0F21C034FEAE652C6F3160629
:10398800B4BF6FF0170500259E42A2F17F02D8BF91
:103998000020154446F07E51D8BF03460EDD4BF299
:1039A800D633C0F25D039E42CDBF00204FF4001015
:1039B80001230135C4BFA1F50001034644F22022CA
:1039C8009B00C0F600021A4405EE101AD2ED003A28
:1039D80075EE237AB7EE003A83EE273A4A1042F0A2
:1039E800005202F58022024475EE635A02EE902AD4
:1039F80065EE836A44F2182226EEA67AC0F6000223
:103A08005FED3F7A1FED3F6AD11844F21022A7EE0E
:103A1800276AC0F60002134416EE902A1FED444AA6
:103A280022F47F62A6EE074A22F00F0207EE902AE0
:103A38005FED384AB1EE676AE4EE074A72EEE33AA0
:103A4800E6EE225A35EE634A1FED4E5AE6EE045A68
:103A5800A4EE875A5FED504A65EE833AE5EE074AD1
:103A680076EEA75A27EE077A65EEA35AB0EE084A13
:103A7800E7EE245AB0EE447AA7EEA77A1FED592A4A
:103A880037EE257A5FED5A2A17EE102A22F47F6264
:103A980022F00F0207EE102A37EE445A93ED004A3F
:103AA800A6EE275A91ED003A75EEC55A5FED634AC6
:103AB80065EEA66A05EE905AE3EE876AB8EEE55A17
:103AC800F0EE665AE7EE875A15EE902A22F47F62E6
:103AD80022F00F0305EE903AE6EE075A07EE903A09
:103AE80076EEE56A66EE826AE7EEA26A76EE836AA9
:103AF800B0EE667AA7EEA47A37EE047A37EE057A46
:103B080017EE103A23F47F6323F00F0306EE103A02
:103B180036EE457A37EE447AA7EEE47A76EEC77A3F
:103B280024F47F6424F00F0406EE907A04EE104A21
:103B380005EE903A36EEC47A66EEA77A65EE846AA8
:103B4800E7EE257A0AF1FF3A37EEA67A5AEA090A29
:103B580017EE103AB7EE008ABFEE006A08BFB0EE63
:103B6800468A002B23F0004240F3A780B2F1864F2B
:103B780075DC69D0B2F17C5FDCBF0022104675DCD1
:103B880023F47F6323F00F0307EE103A1FED9A6AC0
:103B980077EE666A27EE066A77EEE67A5FED9D6A4B
:103BA800A7EEA66A5FED9E4AF0EE467AE7EE247A23
:103BB8005FEDA05A67EEA76A1FEDA15AA6EEA55AB7
:103BC8005FEDA25AE5EE265A1FEDA35AA5EEA65AB6
:103BD8005FEDA45AE5EE265AB0EE674AA5EEE64A2E
:103BE800F0EE675AE7EE645AB0EE005AB0EE657A26
:103BF80074EE456A67EE845A36EE477AC5EEA66AD1
:103C0800A7EE877AB7EE000A36EEC77A77EE677ABC
:103C180030EE670A10EE103A1344B3F5000FA8BF50
:103C280000EE103AC0F28D8028EE000AFBE507236B
:103C3800C3F680739E4255DD002C7FF7ECAD1FED77
:103C4800BD0A20EE000AEEE51FEDC16A37EE667A7E
:103C580037EE866AB4EEC76AF1EE10FA06DD5FED5C
:103C6800C57A28EE270A20EE270ADCE5D2154FF49C
:103C780000017E3A41FA02F21A44C2F3C7504FF6E5
:103C8800FF71A0F17F05C0F27F01294122EA0101FD
:103C980006EE101AC2F3160476EEC66AC0F1960054
:103CA80044F4000444FA00F0002B37EEA67AB8BFBB
:103CB8004042C20517EE103A62E70021C4F21631FD
:103CC8008A4208DC7FF456AF37EE667AF4EEC77A9C
:103CD800F1EE10FACAD85FEDE27A28EE270A20EE54
:103CE800270AA0E5F7EE007A30EE670A5FEDE77A7B
:103CF800F1EE406AB5EE007AE6EE877AB6EE007A23
:103D0800A7EEC07A20EE006A5FEDED7A26EE077A1C
:103D18009FED0D6A67EEC77A9FED0C7AE0EE067AA2
:103D2800F0EE675AE0EE075A15EE903A23F47F63F7
:103D380023F00F0306EE103AA6EE876A77EEC67AEE
:103D4800EEE600F025F96FE770A5EC3600AAB83F5B
:103D580010EE103A23F00042B2F1FF4F70B442D295
:103D6800002A3ED0002BBCBF30EE400A80EE000A8D
:103D780037DBB2F5000F4FEAE3510AD213F4000221
:103D880035D15B00180202F10102FAD5C2F1010235
:103D98001144A1F17F02C3F31603D10743F40003D2
:103DA80048BF5B00002556105B002C4619214FF0D8
:103DB8008072A0189842DEBFC0EB03038418AD18C8
:103DC80001394FEA43034FEA5202F2D113B105F029
:103DD80001031D446D1005F17C5505EBC65500EE39
:103DE800105A70BC7047A0EE000A70BC70470122E0
:103DF8001144CEE700207047F0B551EC100BC1F329
:103E08000A52A2F2FF33132B83B00F4610EE10CAEA
:103E18004FEAD17639DC002B59DB4FF6FF72C0F23E
:103E28000F021A4102EA010404432CD0520802EAA4
:103E3800010C5CEA000C0DD04FF4802721EA020245
:103E480047FA03F142EA0107132B0CBF4FF0004C6D
:103E58004FF0000C44F22823C0F6000303EBC6061B
:103E68003D46D6E9006762462B4630463946FEF79E
:103E7800B7F9CDE9000132463B46DDE90001FEF71E
:103E8800ADF941EC100B03B0F0BD332B0CDDB3F5ED
:103E9800806FF8D151EC100B10EE102A0B46FEF78C
:103EA8009FF941EC100BEEE7A2F213424FF0FF33FB
:103EB800D3400342E7D05B0803421FBF4FF0804C5A
:103EC80020EA03034CFA02F243EA020CC2E721F0AB
:103ED80000430343D7D0C1F3130303435D422B438D
:103EE80044F228201D0BC0F600004C0C00EBC60065
:103EF80005F4002153EC102B41EA4443D0E9004576
:103F080020462946FEF76CF9CDE900012B462246EA
:103F1800DDE90001FEF762F921F0004343EAC671CA
:103F280041EC100BAFE700BF10EE102A22F000435F
:103F380000EE103A704700BF10EE103A23F0004030
:103F4800B0F1FF4FACBF00200120704710EE103ACF
:103F580033F0004001D102207047A0F50003B3F10F
:103F6800FE4F01D2042070474FF6FE73C0F27F0364
:103F7800421E9A4201D803207047B0F1FF435842CD
:103F8800584170479FED010A704700BF0000C07F8D
:103F980008B510EE103A33F0004110EE102A2DED5E
:103FA800028B08BF00EE103A16D0B1F1FF4F24BFC4
:103FB80000EE103A30EE000A0ED2B1F5000F0ED323
:103FC800C90D0144FE2930DC00291CDD22F0FF4226
:103FD80042EAC15200EE102ABDEC028B08BD07EE82
:103FE800103ADFED207A43F6B042CFF6FF7227EEA3
:103FF800277A904217EE103A22DBC3F3C75117EE27
:10400800102A1939DDE711F1160F1EDA4CF2503279
:1040180090420ADC9FED148A00EE903AB0EE480A0E
:1040280000F028F820EE080AD6E79FED108A00EE87
:10403800903AB0EE480A00F01DF820EE080ACBE7E7
:104048009FED090A27EE000AC6E7193122F0FF4260
:1040580042EAC152DFED067A07EE102A27EE270A58
:10406800BAE700BF0000004C6042A20DCAF24971D5
:104078000000003310EE101A21F0004210EE901AE2
:1040880001F00043134300EE103A70470D0A0D0A81
:104098004552524F523A20756E6578706563746563
:1040A8006420444D4120696E746572727570740D98
:1040B8000A00000073746167653D00002054433DA9
:1040C800000000002048543D000000002054453DF9
:1040D8000000000020444D453D0000002046453DBD
:1040E800000000000D0A0D0A4552524F523A207541
:1040F8006E657870656374656420696E7465727244
:1041080075707420647572696E67206173796E6367
:1041180020726563656976650D0A00000D0A65768B
:10412800656E74733D307800496E697469616C69B5
:1041380073696E672E2E2E0D0A00000048656C6CA0
:104148006F20776F726C642C2072656164792074BB
:104158006F20626C696E6B210D0A00000D0A4D50CC
:1041680055363035303A2077686F616D693D307863
:10417800000000000D0A4D5055363035303A207099
:1041880077725F6D676D745F313D307800000000B5
:104198000D0A526561642073656E736F7273202E09
:1041A8002E2E0D0A00000000202054656D703D0081
:1041B8002020416363656C5F783D000020204163E7
:1041C80063656C5F793D00002020416363656C5F27
:1041D8007A3D000020204779726F5F783D0000002B
:1041E80020204779726F5F793D00000020204779D1
:1041F800726F5F7A3D000000430000002800002035
:10420800706F7766000000000000000000C0153FD6
:1042180000000000DCCFD1350000803F0000C03F27
:10422800000000000000304300000000000030C320
:1042380000000000F8B500BFF8BC08BC9E467047F7
:10424800F8B500BFF8BC08BC9E46704700000000E7
:1042580001B40248844601BC604700BFA1040020A5
:08426800E8BFFF7F0100000028
:08427000F532000811020008FC
:04427800E101000858
:10427C000000000000000000000000000102030428
:10428C0006070809007A030A000000000102030473
:10429C0001020304060708090000000014030020B3
:1042AC007C030020E403002000000000000000005C
:1042BC0000000000000000000000000000000000F2
:1042CC000000000000000000000000000042000898
:1042DC0000000000000000000000000000000000D2
:1042EC0000000000000000000000000000000000C2
:1042FC0000000000000000000000000000000000B2
:10430C0000000000000000000000000000000000A1
:10431C000000000000000000000000000000000091
:10432C000000000000000000000000000000000081
:10433C000000000000000000000000000000000071
:10434C0001000000000000000E33CDAB34126DE60E
:10435C00ECDE05000B000000000000000000000077
:10436C000000000000000000000000000000000041
:10437C000000000000000000000000000000000031
:10438C000000000000000000000000000000000021
:10439C000000000000000000000000000000000011
:0846CC0028000020010000009D
:0446D40000000000E2
:04000005080030AD12
:00000001FF
