:020000040800F2
:100000000000022045050008A5050008A505000818
:10001000A5050008A5050008A505000800000000CA
:10002000000000000000000000000000D90F0008E0
:10003000A505000800000000BD1000080D11000813
:10004000A5050008A5050008A5050008A5050008E8
:10005000A5050008A5050008A5050008A5050008D8
:10006000A5050008A5050008A5050008A5050008C8
:10007000A5050008A5050008A5050008A5050008B8
:10008000A5050008A5050008A5050008A5050008A8
:10009000A5050008A5050008A5050008A505000898
:1000A000A5050008A5050008A5050008A505000888
:1000B000A5050008A5050008A5050008A505000878
:1000C000A5050008A5050008A5050008A505000868
:1000D000A5050008A5020008A5050008A50500085B
:1000E000A5050008A5050008A5050008A505000848
:1000F000A5050008A5050008A5050008A505000838
:10010000A5050008A5050008A5050008A505000827
:10011000A5050008A5050008A5050008A505000817
:10012000A5050008A5050008A5050008A505000807
:10013000A5050008A5050008A5050008A5050008F7
:10014000A5050008A5050008A5050008A5050008E7
:10015000A5050008A5050008A5050008A5050008D7
:10016000A5050008A5050008A5050008A5050008C7
:10017000A5050008A5050008A5050008A5050008B7
:08018000A5050008A505000813
:1001880010B5054C237833B9044B13B10448AFF3C9
:1001980000800123237010BD8008002000000000AB
:1001A8008021000808B5064B1BB106480649AFF385
:1001B80000800648036813B1054B03B1984708BD92
:1001C8000000000080210008840800207C0800202E
:1001D8000000000080B582B000AF786039607B68AD
:1001E800DB68002B01D1002321E000F03BFF7B6896
:1001F8001A687B689B68581C7968886013441A7869
:100208003B681A707B689A687B685B689A4206DB71
:100218007B689A687B685B68D21A7B689A607B689F
:10022800DB685A1E7B68DA6000F02EFF012318464F
:100238000837BD4680BD00BF80B584B000AF786088
:100248000B46FB707B68DA687B685B689A4201DB67
:1002580000231FE000F006FF7B689A687B68DB6874
:100268001344FB607B685A68FB689A4204DC7B682D
:100278005B68FA68D31AFB607B681A68FB681344EA
:10028800FA781A707B68DB685A1C7B68DA6000F0C1
:10029800FBFE012318461037BD4680BD80B582B0ED
:1002A80000AF204B1B889BB203F02003002B15D016
:1002B8001C4B9B889BB2DBB21B481946FFF7BCFF5F
:1002C8000346002B05D1194B1B685A1C174B1A60A3
:1002D80004E0164B5B685A1C144B5A60114B1B8880
:1002E8009BB203F08003002B18D0FB1D1048194661
:1002F800FFF770FF0346002B03D00A4BFA799A8068
:1003080007E0084B074A928992B222F0800292B223
:100318009A81064B9B685A1C044B9A600837BD4665
:1003280080BD00BF00100140000000209C09002093
:100338001000002080B582B000AF00F093FE154B8E
:100348005B6A7B60144B1B881A467B689A4203DD04
:100358007B6803F580337B600F4B1B887A68D31A60
:1003680018464FEAE0710D4BD3E90023121843EB0E
:1003780001030A49C1E900237B689AB2064B1A8037
:1003880000F082FE054BD3E90023104619460837D2
:10039800BD4680BD00140040A8090020B009002017
:1003A80080B584B000AF3B46184600F0BBFF0D4B4C
:1003B8000C4A126C42F020021A640B4BF9680B4A83
:1003C800A2FB0102920C92B2013A92B21A85064B34
:1003D8004FF6FF72DA62044B01221A801037BD46CD
:1003E80080BD00BF003802400014004083DE1B437C
:1003F80080B584B000AF786009E013480F2101F0A0
:1004080073F90346002B02D00F4801F05DF90E483E
:10041800202101F069F90346002BEED00A4801F0CB
:1004280053F90346FB6000BF0748802101F05CF9DF
:100438000346002BF8D0FB689BB20348194601F02D
:1004480031F900BFE3E700BF0044004080B586B043
:1004580000AF0120012101F00FF84FF40030012115
:1004680001F028F80C233B6102233B750023BB7580
:100478000023FB7502237B7507F110031D481946FD
:1004880000F07CFE1B480221072200F005FF1948F6
:100498000321072200F000FF0820012100F0ECFFF3
:1004A8004FF470433B6101233B750023BB75032365
:1004B8007B750023FB7507F110030F48194600F000
:1004C8005DFE4FF416433B600023BB800023FB8096
:1004D80000233B810023BB810C237B813B460748DB
:1004E800194601F005F80548012101F0BBF8183755
:1004F800BD4680BD00000240000C024000440040A0
:1005080080B584B004AFFFF7A1FF01230093002357
:10051800019300230293002303930648064980228F
:10052800002300F047F900F0EDF900231846BD4616
:1005380080BD00BFF9030008F8200008002100F082
:1005480004B8104B5B58435004310F480F4B421806
:100558009A42FFF4F6AF0E4A00F003B8002342F8BF
:10056800043B0C4B9A42FFF4F9AF0B48016841F485
:100578007001016000F014F801F0D2F8FFF7C0FF35
:1005880070470000A4210008000000207C0800201B
:1005980080080020F80A002088ED00E0FFF7FEBF81
:1005A80080B500AF114B114A126842F001021A607F
:1005B8000E4B00229A600D4A0C4B1B6823F0847383
:1005C80023F480331360094B094A5A60074B074AE2
:1005D800126822F480221A60044B0022DA6000F0CC
:1005E8000BF8044B4FF000629A6080BD003802405F
:1005F8001030002400ED00E080B483B000AF002389
:100608007B6000233B60414B404A126842F48032D1
:100618001A603E4B1B6803F400333B607B68013370
:100628007B603B68002B03D17B68B3F5A06FF0D1EA
:10063800364B1B6803F40033002B02D001233B60C8
:1006480001E000233B603B68012B42D12F4B2F4A2E
:10065800126C42F080521A642D4B2D4A126842F4F3
:1006680080421A60294B294A92689A60274B274A88
:10067800926842F400429A60244B244A926842F4F9
:10068800A0529A60214B234A5A60204B1F4A126895
:1006980042F080721A6000BF1C4B1B6803F00073A5
:1006A800002BF9D01C4B40F205621A60174B174A11
:1006B800926822F003029A60144B144A926842F03E
:1006C80002029A6000BF114B9B6803F00C03082BD1
:1006D800F9D10E4B0D4A926822F400029A600B4B36
:1006E8000E4AC3F88420094B084A126842F0806217
:1006F8001A6000BF054B1B6803F00063002BF9D09C
:100708000C37BD465DF8047B704700BF00380240D7
:100718000070004008544007003C02400030005080
:1007280090B484B000AF78603960154B1B68002B1B
:1007380002D1134B134A1A60114B1A683B681A44CA
:10074800EFF308831C46234619460F4B1B68CB1A48
:100758009A4205D97B680C221A604FF0FF3309E0F2
:10076800074B1B68FB60064B1A683B681A44044B2E
:100778001A60FB6818461037BD4690BC704700BF2A
:10078800F40A0020F80A00202400002080B582B076
:1007980000AF786000F066FC0837BD4680BD00BF3A
:1007A80080B582B000AF786000F06EFC0837BD46B7
:1007B80080BD00BF80B58AB002AFF860B9603B6009
:1007C8001346FB80FB881846396B00F011FBB861B3
:1007D800BB69002B70D0BB691A6BFB8803F180439F
:1007E800013B9B0013447B617B6923F007037B611A
:1007F800FB880093B869B968BA6A7B6B00F044FA61
:100808007869F9683A6800F0B3FB0246BB691A6078
:10081800FB6A002B02D0FB6ABA691A6000F022FC5E
:10082800314B1B685A1C304B1A60304B1B68002B2D
:1008380009D12E4BBA691A602B4B1B68012B0FD1BB
:1008480000F05EFA0CE02A4B1B68002B08D1274BFE
:100858001B68DA6ABB6A9A4202D8244BBA691A60E2
:10086800BB69DA6A234B1B689A4203D9BB69DA6A07
:10087800204B1A60204B1B685A1C1F4B1A60BB691F
:10088800DA6A1E4B1B689A4203D9BB69DA6A1B4BAA
:100898001A60BB69DA6A13469B0013449B00184A26
:1008A8001A44BB6904331046194600F011FB0123B2
:1008B800FB6100F0E9FB02E04FF0FF33FB61FB69ED
:1008C800012B0BD10A4B1B68002B07D0074B1B6869
:1008D800DA6ABB6A9A4201D200F0B8FBFB69184693
:1008E8002037BD4680BD00BF940A0020B80900200B
:1008F800A40A00209C0A0020B80A0020A00A0020B0
:10090800BC09002080B586B004AF00230093114BCA
:10091800019300230293002303930F480F494FF4D8
:1009280080720023FFF746FF78607B68012B0DD1AA
:100938004FF0BF0080F31188094B01221A60094B60
:1009480000221A60FFF72CFD00F05AFB0837BD465D
:1009580080BD00BF900A0020710C00080421000827
:10096800A40A0020980A002080B400AF044B1B683A
:100978005A1C034B1A60BD465DF8047B704700BFE4
:10098800A80A002090B583B000AF00237B6000F078
:1009980069FB314B1B685A1E2F4B1A602E4B1B6884
:1009A800002B52D12D4B1B68002B4ED000233B60EF
:1009B80027E02B4BDB68DC6804F11803184600F0CD
:1009C800AFFA231D184600F0ABFAE26A254B1B6804
:1009D8009A4202D9E26A234B1A60E26A13469B00E4
:1009E80013449B00204A1A44231D1046194600F060
:1009F8006FFAE26A1D4B1B68DB6A9A4201D3012336
:100A08003B60174B1B68002BD3D1194B1B68002B7D
:100A18000DD006E000F030F8154B1B685A1E144B39
:100A28001A60134B1B68002BF4D101233B603B6811
:100A3800012B03D00F4B1B68012B06D101237B60D0
:100A48000C4B00221A6000F001FB00F01DFB7B68D4
:100A580018460C37BD4690BDA80A0020940A00200D
:100A6800500A0020A00A0020BC090020B809002074
:100A7800AC0A0020B00A002080B584B000AF404B1B
:100A88001B68002B73D13F4B1B685A1C3D4B1A60E7
:100A98003C4B1B68002B21D13B4B1B68FB603B4B3D
:100AA8001A68394B1A60394BFA681A60384B1B6858
:100AB8005A1C374B1A60344B1B681B68002B04D137
:100AC800344B4FF0FF321A6008E02F4B1B68DB688D
:100AD800DB68BB60BB685A682E4B1A60294B1A68E2
:100AE8002C4B1B689A4241D3274B1B681B68002B71
:100AF80004D1284B4FF0FF321A6037E0224B1B68B5
:100B0800DB68DB68BB60BB685B687B601D4B1A6891
:100B18007B689A4203D21F4B7A681A6026E0BB684A
:100B28000433184600F0FCF9BB689B6A002B04D01C
:100B3800BB681833184600F0F3F9BB68DA6A164B3D
:100B48001B689A4203D9BB68DA6A134B1A60BB6800
:100B5800DA6A13469B0013449B00104A1A44BB6888
:100B680004331046194600F0B3F9BDE704E00C4B16
:100B78001B685A1C0A4B1A601037BD4680BD00BF5F
:100B8800A80A0020980A0020480A00204C0A0020E1
:100B9800B40A002028000020A00A0020BC09002078
:100BA800AC0A002080B582B000AF284B1B68002B30
:100BB80003D0274B01221A6045E0FFF7BBFB024632
:100BC8000B4613467B60234B1B68D96C224A12687C
:100BD8007868821A0A44DA641F4B7A681A6004E05B
:100BE8001E4B1B685A1E1D4B1A601C4B1A681C4969
:100BF80013469B0013449B000B441B68002BEFD04B
:100C0800164B1A6813469B0013449B00144A13445E
:100C18003B603B685B685A683B685A603B685A6847
:100C28003B6808339A4204D13B685B685A683B6862
:100C38005A603B685B68DA68064B1A60094B054ADC
:100C48001268926CDA600837BD4680BDA80A002099
:100C5800B00A0020B8090020BC0A0020A00A002021
:100C6800BC0900200074004080B582B000AF7860F5
:100C780000F084F8034B1B68012B02D900F0E6F959
:100C8800F6E7F5E7BC09002080B584B000AFF8604E
:100C9800B9607A603B60FB6834331846B968102243
:100CA80001F05CF8FB68002283F843207B68042B82
:100CB80001D904237B60FB687A68DA62FB687A688A
:100CC8005A64FB680433184600F0F6F8FB681833DA
:100CD800184600F0F1F8FB68FA681A617B68C3F1FE
:100CE8000502FB689A61FB68FA685A62FB68002291
:100CF8009A64FB680022DA641037BD4680BD00BFE5
:100D080080B582B000AF00237B600CE07A681346A0
:100D18009B0013449B00114A1344184600F0ACF89A
:100D28007B6801337B607B68042BEFD90C4800F0AB
:100D3800A3F80C4800F0A0F80B4800F09DF80B4809
:100D480000F09AF80A4800F097F80A4B044A1A602B
:100D5800094B044A1A600837BD4680BDBC0900200B
:100D6800200A0020340A0020500A0020640A0020CB
:100D78007C0A0020480A00204C0A002080B582B076
:100D880000AF184B1B68002B28D0FFF7EDFD164B62
:100D98001B68002B14BF00230123DBB27B60FFF725
:100DA800F1FD7B68002B19D100F05CF90E4BDB6874
:100DB800DB683B603B680433184600F0B1F80B4B26
:100DC8001B685A1E094B1A60064B1B685A1E054BB6
:100DD8001A6000F059F9386800F03EF80837BD4647
:100DE80080BD00BF780A0020640A0020940A002011
:100DF80080B584B000AF03463960FB80502000F016
:100E0800B7FC0346FB60FB68002B1FD03B68002B38
:100E180006D1FB889B00184600F0AAFC034600E0B8
:100E28003B68FA681363FB681B6B002B05D1F868F5
:100E380000F0A6FC0023FB6008E0FB681A6BFB8847
:100E48009B001046A5211A4600F03EFFFB68184695
:100E58001037BD4680BD00BF80B582B000AF786056
:100E68007B681B6B184600F08BFC786800F088FCE8
:100E78000837BD4680BD00BF80B483B000AF78603E
:100E88007B6803F108027B685A607B684FF0FF3289
:100E98009A607B6803F108027B68DA607B6803F17B
:100EA80008027B681A617B6800221A600C37BD460D
:100EB8005DF8047B704700BF80B483B000AF7860F2
:100EC8007B6800221A610C37BD465DF8047B7047C9
:100ED80080B485B000AF786039607B685B68FB6080
:100EE800FB685A683B685A607B685A683B689A6036
:100EF800FB685B683A689A60FB683A685A607B6886
:100F08003A685A603B687A681A617B681B685A1CA1
:100F18007B681A601437BD465DF8047B704700BFD4
:100F280080B485B000AF78607B685B687A68926847
:100F38009A607B689B687A6852685A607B681B690C
:100F4800FB60FB685A687B689A4203D17B689A68A1
:100F5800FB685A607B6800221A61FB681B685A1E8E
:100F6800FB681A601437BD465DF8047B704700BF04
:100F780080B485B000AFF860B9607A60FB68043B64
:100F8800FB60FB684FF080721A60FB68043BFB60F3
:100F9800BA68FB681A60FB68043BFB60FB680022C8
:100FA8001A60FB68143BFB607A68FB681A60FB6890
:100FB800043BFB60FB686FF002021A60FB68203B91
:100FC800FB60FB6818461437BD465DF8047B704724
:100FD800054B19680868B0E8F04F80F309884FF0AE
:100FE800000080F311887047B809002003480068A2
:100FF800006880F3088862B600DF00BF08ED00E0F3
:1010080080B500AF0E4B0E4A126842F47F021A6098
:101018000B4B0B4A126842F07F421A6000F08AF8C4
:10102800084B00221A6000F09FF8074B064A126826
:1010380042F040421A60FFF7D9FF0023184680BDEE
:1010480020ED00E02C00002034EF00E080B400AF79
:10105800034B4FF080521A60BD465DF8047B704721
:1010680004ED00E080B400AF4FF0BF0080F31188BA
:10107800044B1B685A1C034B1A60BD465DF8047B81
:10108800704700BF2C00002080B400AF084B1B68DD
:101098005A1E074B1A60064B1B68002B03D14FF0F2
:1010A800000080F31188BD465DF8047B704700BFDF
:1010B8002C000020EFF30980114B1A681EF0100F66
:1010C80008BF20ED108A20E9F04F10602DE9084094
:1010D8004FF0BF0080F31188FFF764FD4FF0000068
:1010E80080F31188BDE8084019680868B0E8F04F37
:1010F8001EF0100F08BFB0EC108A80F30988704703
:10110800B809002080B582B000AF094B4FF080527B
:101118001A6000237B604FF0BF0080F31188FFF74F
:10112800ABFC4FF0000080F311880837BD4680BD46
:1011380004ED00E080B400AF074B084A1168084A84
:10114800A2FB01029209013A1A60064B07221A60B3
:10115800BD465DF8047B704714E000E020000020E5
:10116800D34D621010E000E0DFF80C00016841F494
:10117800700101607047000088ED00E080B487B01E
:1011880000AF7860396000237B6100233B61002356
:10119800FB6000237B6176E07B69012202FA03F39E
:1011A8003B613B681A683B691340FB60FA683B691E
:1011B8009A4265D17B681A687B695B00032101FA52
:1011C80003F3DB431A407B681A607B681A683B6844
:1011D8001B7919467B695B0001FA03F31A437B68A4
:1011E8001A603B681B79012B03D03B681B79022BE3
:1011F8002ED17B689A687B695B00032101FA03F3AF
:10120800DB431A407B689A607B689A683B685B7925
:1012180019467B695B0001FA03F31A437B689A60FD
:101228007B685A687B699BB2012101FA03F3DB43AF
:101238001A407B685A607B685A683B689B791946F4
:101248007B699BB201FA03F39BB21A437B685A602D
:101258007B68DA687B699BB25B00032101FA03F3C0
:10126800DB431A407B68DA607B68DA683B68DB79C5
:1012780019467B695B0001FA03F31A437B68DA605D
:101288007B6901337B617B690F2B85D91C37BD4690
:101298005DF8047B704700BF80B485B000AF78600C
:1012A80013460A467A807B700023FB600023BB60EC
:1012B8007A787B8803F007039B0002FA03F3FB604C
:1012C8007B88DB089BB21A467B88DB089BB21946F1
:1012D8007B68083153F821107B8803F007039B00D3
:1012E8000F2000FA03F3DB4319407B68083243F808
:1012F80022107B88DB089BB21A467B68083253F8B9
:101308002220FB681343BB607B88DB089BB21A462C
:101318007B680832B96843F822101437BD465DF877
:10132800047B704780B489B000AF78600023BB614C
:1013380000237B610023FB6102233B610023FB60E8
:101348000223BB60484B9B6803F00C03BB61BB697D
:10135800042B07D0082B09D0002B3FD17B68434AC8
:101368001A603FE07B68424A1A603BE03E4B5B688C
:1013780003F480039B0DFB603B4B5B6803F03F036A
:10138800BB60FB68002B0DD0394ABB68B2FBF3F297
:10139800354B596847F6C0730B409B0903FB02F3B2
:1013A800FB610CE0314ABB68B2FBF3F22E4B596883
:1013B80047F6C0730B409B0903FB02F3FB612A4B02
:1013C8005B6803F440331B0C01335B003B61FA6933
:1013D8003B69B2FBF3F27B681A6003E07B68234A3F
:1013E8001A6000BF204B9B6803F0F003BB61BB6928
:1013F8001B09BB611F4ABB6913441B78DBB27B61C5
:101408007B681A687B69DA407B685A60164B9B6870
:1014180003F4E053BB61BB699B0ABB61154ABB6916
:1014280013441B78DBB27B617B685A687B69DA40BE
:101438007B689A600C4B9B6803F46043BB61BB6993
:101448005B0BBB610B4ABB6913441B78DBB27B6146
:101458007B685A687B69DA407B68DA602437BD4666
:101468005DF8047B704700BF003802400024F40098
:1014780000127A003000002080B483B000AF78609A
:101488000B46FB70FB78002B06D0094B084A116B02
:101498007A680A431A6306E0054B054A116B7A68B5
:1014A800D2430A401A630C37BD465DF8047B704787
:1014B8000038024080B483B000AF78600B46FB7000
:1014C800FB78002B06D0094B084A116C7A680A434E
:1014D8001A6406E0054B054A116C7A68D2430A4043
:1014E8001A640C37BD465DF8047B7047003802402B
:1014F80080B58AB000AF7860396000237B62002332
:101508003B620023FB610023BB617B681B8A9BB2A3
:101518007B627B6A23F440537B623B68DB887A6A90
:1015280013437B627B6A9AB27B681A827B689B89C9
:101538009BB27B627B6A23F4B05323F00C037B627B
:101548003B689A883B681B8913439AB23B685B895E
:1015580013439BB27A6A13437B627B6A9AB27B68B5
:101568009A817B689B8A9BB27B627B6A23F4407377
:101578007B623B689B897A6A13437B627B6A9AB277
:101588007B689A8207F108031846FFF7CBFE7A6852
:10159800314B9A4203D07A68304B9A4202D17B6928
:1015A8003B6201E03B693B627B689B899BB29BB2D3
:1015B8001BB2002B0CDA3A6A13469B0013449A00BC
:1015C8001A443B681B685B00B2FBF3F3FB610BE05A
:1015D8003A6A13469B0013449A001A443B681B68F6
:1015E8009B00B2FBF3F3FB61FA691D4BA3FB0213EB
:1015F8005B091B017B627B6A1B09642202FB03F304
:10160800FA69D31ABB617B689B899BB29BB21BB2F8
:10161800002B0DDABB69DB0003F13202104BA3FB90
:1016280002135B0903F007037A6A13437B620CE039
:10163800BB691B0103F13202094BA3FB02135B09CF
:1016480003F00F037A6A13437B627B6A9AB27B6862
:101658001A812837BD4680BD0010014000140140A2
:101668001F85EB5180B483B000AF78600B46FB70E8
:10167800FB78002B08D07B689B899BB243F400530E
:101688009AB27B689A8107E07B689B899BB223F4B6
:1016980000539AB27B689A810C37BD465DF8047B8B
:1016A800704700BF80B483B000AF78600B467B8082
:1016B8007B88C3F308039AB27B689A800C37BD46CF
:1016C8005DF8047B704700BF80B483B000AF7860DA
:1016D8007B689B889BB2C3F308039BB218460C3700
:1016E800BD465DF8047B704780B485B000AF786074
:1016F8000B467B800023FB737B681B889AB27B8830
:1017080013409BB2002B02D00123FB7301E000239E
:10171800FB73FB7B18461437BD465DF8047B7047A6
:1017280070B50F4E0F4D761BB61007D0043D002440
:10173800013455F8043F9847A642F9D10A4E0B4D9B
:10174800761B00F019FDB61008D0043D00240134C2
:1017580055F8043F9847A642F9D170BD70BD00BF47
:101768009821000898210008A02100089821000865
:10177800024B0146186800F00BB800BF680400204F
:10178800024B0146186800F091BB00BF68040020B6
:101798002DE9F04F01F10B05162D83B0064627D928
:1017A80035F0070527D4A94225D83046FEF7EEFFC5
:1017B800B5F5FC7F26D2C14F4FEAD50C07EBCC0319
:1017C800DC689C4200F0D2816368E268A16823F07B
:1017D8000303234430465D68CA6045F00105916003
:1017E8005D60FEF7DDFF0834204603B0BDE8F08FEA
:1017F8001025A942D9D900240C232046336003B010
:10180800BDE8F08F5FEA552C00F08A80BCF1040F28
:1018180000F260814FEA951C0CF1380C4FEA4C013C
:10182800A64F07EB8101CC68A14205D10CE0002B43
:101838007ADAE468A14207D0626822F00302531BF7
:101848000F2BF4DD0CF1FF3C0CF1010C9B4B3C69B8
:1018580003F1080E744500F07E81616821F00301F0
:101868004A1B0F2A00F36481002AC3F814E0C3F866
:1018780010E06ADAB1F5007F80F03A81C90803EB1D
:10188800C1004FEAA1085A688168A1604FF00109B8
:1018980009FA08F848EA0202E0605A608460CC60FD
:1018A8004FEAAC030120984090425BD8024206D12F
:1018B8002CF0030C400002420CF1040CFAD007EBA8
:1018C800CC084446E146E3689C4207D145E1002A3A
:1018D80080F25681DB689C4200F03F81596821F014
:1018E80003014A1B0F2AF2DD1C46D3F80CC054F83A
:1018F800088F591945F0010942F00105C3F8049011
:101908003046C8F80CC0CCF8088079613961C1F854
:101918000CE0C1F808E04D608A50FEF741FF63E72C
:101928007E214FF03F0C7BE72244E3685068A168B2
:1019380040F00105CB60304699605560FEF730FFF6
:101948000834204603B0BDE8F08F214430464B6888
:1019580043F001034B60FEF723FF0834204603B031
:10196800BDE8F08FBC68636823F00309A94504D378
:10197800C5EB09030F2B00F39180514B514A1968AD
:101988001368013305EB010A04EB090B00F06181D0
:101998000AF5805A0AF10F0A2AF47F6A2AF00F0A18
:1019A800304651460192FEF7BBFEB0F1FF3F80463C
:1019B800019A00F00081834500F2FA80DFF810C137
:1019C800DCF80030C3455344CCF8003000F04A81BD
:1019D80012683C4901321BBFCBEB080B5B44C1F8D2
:1019E8000080CCF8003018F0070300F01381C3F131
:1019F8000802C3F5805390440833C244CAF30B0A63
:101A0800CAEB030A51463046CDF804C0FEF788FEFB
:101A1800431CDDF804C000F03581C8EB00025244D5
:101A280042F00102DCF80030C7F808805344BC4299
:101A3800C8F80420CCF80030DFF894A015D0B9F12C
:101A48000F0F40F2EA806168A9F10C0222F0070248
:101A580001F0010EA118052042EA0E0E0F2AC4F863
:101A680004E04860886000F21181174ABC68116878
:101A78008B4288BF1360154A11688B4288BF136078
:101A8800626822F003029542C5EB020301D80F2BCE
:101A980004DC3046FEF784FE0024A5E6621943F014
:101AA800010345F0010565603046BA605360FEF7F2
:101AB80077FE0834204603B0BDE8F08F6C040020A0
:101AC800C80A002078080020C40A0020C00A0020A4
:101AD800CC0A0020BCF1140F61D9BCF1540F00F2FC
:101AE8008F804FEA153C0CF16E0C4FEA4C0197E6DB
:101AF8004B0A042B58D9142B00F2AE8003F15B0279
:101B0800500007EB8000DFF8BC818368834200F057
:101B18008A805A6822F00302914202D29B68984256
:101B2800F7D1D9687A68E160A3608C60DC60B7E6B9
:101B3800611942F0010745F00105656030465961B9
:101B48001961C1F80CE0C1F808E04F608A50083408
:101B5800FEF726FE48E65A68A2E609F1010919F0DF
:101B6800030F04F108047FF4AEAE2DE004F108037E
:101B78006469A34208BF0CF1020C3FF467AE23E688
:101B880019441C464868DB6854F8082F40F00105E2
:101B98004D603046D3609A60FEF702FE24E60CF1F1
:101BA8005B0C4FEA4C013BE68A0938325000A8E743
:101BB800BC423FF403AFBC68626822F0030262E7EC
:101BC800D8F8008098457BD11CF0030FA8F10803D2
:101BD8000CF1FF3CF4D17B6823EA00037B604000F2
:101BE80098423FF6BFAE00283FF4BCAE0342CC4655
:101BF8007FF465AE400003420CF1040CFAD05EE6B7
:101C0800BCF5AA7F1AD84FEAD53C0CF1770C4FEAFD
:101C18004C0105E64FF48053EFE60123C8F8043081
:101C2800444600222FE791100120D8F8042000FA3A
:101C380001F10A43C8F80420194674E740F25453E6
:101C48009C451BD84FEA954C0CF17C0C4FEA4C0193
:101C5800E6E50AF1100AA3E6542B1FD80A0B6E32E8
:101C680050004EE7CBF30B0100297FF4B1AE0AEB2D
:101C78000901BA6841F001015160F6E6FC214FF014
:101C88007E0CCDE501224FF0000ACBE604F10801F5
:101C9800304600F00BF9DAF80030E6E6B3F5AA7F33
:101CA80003D8CA0B773250002BE740F254529342C4
:101CB80003D88A0C7C32500023E7FC207E2220E7E0
:101CC8007B688CE76C040020F0B4840743D0541E72
:101CD800002A3ED0CDB2034603E0621E002C38D065
:101CE800144603F8015B9A07F7D1032C2AD9CDB221
:101CF80045EA05250F2C45EA054515D9A4F1100735
:101D08003F0903F1100606EB07161A4615605560E1
:101D18009560D5601032B242F8D104F00F04013753
:101D2800032C03EB07130DD91E462246043A032A57
:101D380046F8045BFAD8221F22F003020432134447
:101D480004F003042CB1C9B21C4403F8011BA342DC
:101D5800FBD1F0BC704714460346C6E740EA0103CE
:101D68009B0770B42AD1032A28D90C46034621467A
:101D780054F8045BA5F1013626EA050616F0803F03
:101D880005D1043A032A43F8045B2146EFD89AB1F7
:101D98000C781C70013A01333CB16AB111F8014F5B
:101DA80003F8014B013A002CF7D12AB11A4400215B
:101DB80003F8011B9342FBD170BC70470346E6E76A
:101DC800024B13B1024800F005B87047000000004C
:101DD800E91D0008014600200246034600F034B918
:101DE80038B5094D094C641BA41018BF05EB8405D0
:101DF80005D0013C55F8043D9847002CF9D1BDE8C1
:101E0800384000F0BFB900BFA0210008A421000895
:101E1800F8B5234D0F460446FEF7B8FCAB685E687C
:101E280026F00306F11B01F6EF7121F47F6121F022
:101E38000F01A1F58057B7F5805F07DB2046002129
:101E4800FEF76EFCAB683344984204D02046FEF798
:101E5800A7FC0020F8BD20467942FEF761FC01305E
:101E68000DD0104BAA681968F61B46F001062046EB
:101E7800C91B56601960FEF793FC0120F8BD204687
:101E88000021FEF74DFCAB68C21A0F2ADEDD064DB5
:101E980004492D6842F00102401B5A600860D5E7EA
:101EA8006C040020CC0A0020780800202DE9F041BD
:101EB8000D460646002955D0FEF768FC55F8041C67
:101EC800DFF874C121F00103A5F10804E218DCF879
:101ED80008005768904227F0030769D011F0010104
:101EE800576032D00021D0194068C00706D43B445F
:101EF800906800294ED0D268C260906043F0010219
:101F08006260E350E1B9B3F5007F2DD35A0A042A81
:101F18006AD89809383041000CEB810C4649DCF846
:101F28000820624566D0516821F003018B4202D235
:101F380092689445F7D1D368E360A2609C60D4604E
:101F48003046BDE8F041FEF72BBC55F8085C641B31
:101F58000CF10808A06840452B4443D0E568C560EB
:101F6800A860C0E7BDE8F081DB080CEBC3020125DF
:101F7800DCF804009168A1609B1005FA03F318438C
:101F8800E260CCF8040094603046CC60BDE8F041D3
:101F9800FEF706BC294DA842ADD143F00102CCF8AA
:101FA8001440CCF81040E060A0606260E350C7E7DE
:101FB8001F44CB0707D455F8083CE41A1F44A2680D
:101FC800E368D3609A601E4B1B6847F001029F428A
:101FD8006260CCF80840B3D31A4B30461968FFF753
:101FE80017FFADE701217EE7142A0CD802F15B0048
:101FF800410091E74B688010012505FA00F0034382
:102008004B60134698E7542A03D8180B6E304100EA
:1020180082E7B2F5AA7F03D8D80B773041007BE777
:1020280040F254518A4203D8980C7C30410073E73F
:10203800FC217E2070E700BF6C040020740400209F
:1020480074080020C80A0020F0B5274C2668D6F886
:10205800484185B00746002C41D065681F2D1EDD1C
:10206800224818B94FF0FF3005B0F0BD4FF4C870E2
:10207800039102920193FFF77BFB0399029A019B5C
:1020880004460028EED0D6F848512560002060604C
:102098000546C6F84841C4F88801C4F88C013FB920
:1020A800AB1C00200135656044F8231005B0F0BD75
:1020B80004EB85004FF0010CC0F88820D4F8886143
:1020C8000CFA05F21643022FC4F88861C0F80831EB
:1020D800E6D1D4F88C311A43C4F88C21E0E706F530
:1020E800A674C6F84841B8E77C21000879170008AB
:1020F80055736172745461736B00000049444C4518
:10210800000000000D0A000025752020256320200E
:10211800252D31367320202020202020202020301B
:1021280020202030252520202535750D0A000000A7
:102138002575202025632020252D31367320253153
:10214800307520253375252520202535750D0A0085
:102158002575202025632020252D31367320253133
:10216800307520203C31252520202535750D0A00A5
:102178004300000040000020F8B500BFF8BC08BCD0
:102188009E467047F8B500BFF8BC08BC9E4670472D
:08219800C91D0008AD0100089B
:0421A00089010008A9
:1021A4009C080020800000000000000000000000E7
:1021B4001C09002080000000000000000000000056
:1021C400007A030A00010000FFFFFFFFAAAAAAAADF
:1021D40000000000010203040102030406070809C9
:1021E400000000002C03002094030020FC030020C6
:1021F40000000000000000000000000000000000DB
:1022040000000000000000000000000000000000CA
:102214000000000078210008000000000000000019
:1022240000000000000000000000000000000000AA
:10223400000000000000000000000000000000009A
:10224400000000000000000000000000000000008A
:10225400000000000000000000000000000000007A
:10226400000000000000000000000000000000006A
:10227400000000000000000000000000000000005A
:102284000000000000000000010000000000000049
:102294000E33CDAB34126DE6ECDE05000B0000000E
:1022A400000000000000000000000000000000002A
:1022B400000000000000000000000000000000001A
:1022C400000000000000000000000000000000000A
:1022D40000000000000000000000000000000000FA
:102604000000000000000000400000200000000066
:10261400000000006C0400206C04002074040020FE
:10262400740400207C0400207C0400208404002026
:10263400840400208C0400208C04002094040020D6
:10264400940400209C0400209C040020A404002086
:10265400A4040020AC040020AC040020B404002036
:10266400B4040020BC040020BC040020C4040020E6
:10267400C4040020CC040020CC040020D404002096
:10268400D4040020DC040020DC040020E404002046
:10269400E4040020EC040020EC040020F4040020F6
:1026A400F4040020FC040020FC04002004050020A5
:1026B400040500200C0500200C0500201405002052
:1026C400140500201C0500201C0500202405002002
:1026D400240500202C0500202C05002034050020B2
:1026E400340500203C0500203C0500204405002062
:1026F400440500204C0500204C0500205405002012
:10270400540500205C0500205C05002064050020C1
:10271400640500206C0500206C0500207405002071
:10272400740500207C0500207C0500208405002021
:10273400840500208C0500208C05002094050020D1
:10274400940500209C0500209C050020A405002081
:10275400A4050020AC050020AC050020B405002031
:10276400B4050020BC050020BC050020C4050020E1
:10277400C4050020CC050020CC050020D405002091
:10278400D4050020DC050020DC050020E405002041
:10279400E4050020EC050020EC050020F4050020F1
:1027A400F4050020FC050020FC05002004060020A0
:1027B400040600200C0600200C060020140600204D
:1027C400140600201C0600201C06002024060020FD
:1027D400240600202C0600202C06002034060020AD
:1027E400340600203C0600203C060020440600205D
:1027F400440600204C0600204C060020540600200D
:10280400540600205C0600205C06002064060020BC
:10281400640600206C0600206C060020740600206C
:10282400740600207C0600207C060020840600201C
:10283400840600208C0600208C06002094060020CC
:10284400940600209C0600209C060020A40600207C
:10285400A4060020AC060020AC060020B40600202C
:10286400B4060020BC060020BC060020C4060020DC
:10287400C4060020CC060020CC060020D40600208C
:10288400D4060020DC060020DC060020E40600203C
:10289400E4060020EC060020EC060020F4060020EC
:1028A400F4060020FC060020FC060020040700209B
:1028B400040700200C0700200C0700201407002048
:1028C400140700201C0700201C07002024070020F8
:1028D400240700202C0700202C07002034070020A8
:1028E400340700203C0700203C0700204407002058
:1028F400440700204C0700204C0700205407002008
:10290400540700205C0700205C07002064070020B7
:10291400640700206C0700206C0700207407002067
:10292400740700207C0700207C0700208407002017
:10293400840700208C0700208C07002094070020C7
:10294400940700209C0700209C070020A407002077
:10295400A4070020AC070020AC070020B407002027
:10296400B4070020BC070020BC070020C4070020D7
:10297400C4070020CC070020CC070020D407002087
:10298400D4070020DC070020DC070020E407002037
:10299400E4070020EC070020EC070020F4070020E7
:1029A400F4070020FC070020FC0700200408002096
:1029B400040800200C0800200C0800201408002043
:1029C400140800201C0800201C08002024080020F3
:1029D400240800202C0800202C08002034080020A3
:1029E400340800203C0800203C0800204408002053
:1029F400440800204C0800204C0800205408002003
:102A0400540800205C0800205C08002064080020B2
:0C2A14006408002000000200FFFFFFFF2C
:0400000508000545A5
:00000001FF
