:020000040800F2
:1000000000000220C10400082105000821050008A5
:100010002105000821050008210500080000000056
:10002000000000000000000000000000C91C0008E3
:100030002105000800000000451E0008951E00086C
:1000400021050008210500082105000821050008F8
:1000500021050008210500082105000821050008E8
:1000600021050008210500082105000821050008D8
:1000700021050008210500082105000821050008C8
:1000800021050008210500082105000821050008B8
:10009000210500082105000821050008F5030008D6
:1000A0002105000821050008210500082105000898
:1000B000D103000895030008210500082105000868
:1000C0002105000821050008210500082105000878
:1000D0002105000821050008210500082105000868
:1000E0002105000821050008210500082105000858
:1000F0002105000821050008210500082105000848
:100100002105000821050008210500082105000837
:100110002105000821050008210500082105000827
:100120002105000821050008210500082105000817
:100130002105000821050008210500082105000807
:1001400021050008210500082105000821050008F7
:1001500021050008210500082105000821050008E7
:1001600021050008210500082105000821050008D7
:1001700021050008210500082105000821050008C7
:0801800021050008210500081B
:1001880010B5054C237833B9044B13B10448AFF3C9
:1001980000800123237010BD4804002000000000E7
:1001A800342D000808B5064B1BB106480649AFF3C5
:1001B80000800648036813B1054B03B1984708BD92
:1001C80000000000342D00084C04002048040020E2
:1001D80000000000844641EA000313F003036DD1D8
:1001E800403A41D351F8043B40F8043B51F8043BF2
:1001F80040F8043B51F8043B40F8043B51F8043BF9
:1002080040F8043B51F8043B40F8043B51F8043BE8
:1002180040F8043B51F8043B40F8043B51F8043BD8
:1002280040F8043B51F8043B40F8043B51F8043BC8
:1002380040F8043B51F8043B40F8043B51F8043BB8
:1002480040F8043B51F8043B40F8043B51F8043BA8
:1002580040F8043B51F8043B40F8043B51F8043B98
:1002680040F8043B403ABDD2303211D351F8043B38
:1002780040F8043B51F8043B40F8043B51F8043B78
:1002880040F8043B51F8043B40F8043B103AEDD2E7
:100298000C3205D351F8043B40F8043B043AF9D238
:1002A800043208D0D2071CBF11F8013B00F8013B0B
:1002B80001D30B8803806046704700BF082A13D318
:1002C8008B078DD010F003038AD0C3F10403D21A30
:1002D800DB071CBF11F8013B00F8013B80D331F864
:1002E800023B20F8023B7BE7043AD9D3013A11F8E4
:1002F800013B00F8013BF9D20B7803704B7843704F
:100308008B7883706046704780B483B000AF034633
:10031800FB71094B97F907205209F97901F01F0180
:10032800012000FA01F1403243F822100C37BD4693
:100338005DF8047B704700BF00E100E080B500AFC6
:1003480000F006F8012002F0D5F800F0A1FAFEE767
:1003580080B500AF00F0E2F84FF4407002F06CF99D
:1003680000F082F880BD00BF80B500AF064B1B6867
:100378005A1C054B1A601C20FFF7C6FF024B1B686E
:100388005A1E014B1A6080BD6404002080B400AF7F
:100398000B4B1B685A1C0A4B1A60094B1A68094B0D
:1003A8001B689A4203D9064B1A68064B1A60044B1D
:1003B8001B685A1E024B1A60BD465DF8047B7047E5
:1003C800640400206804002080B500AF064B1B6859
:1003D8005A1C054B1A601D20FFF796FF024B1B683D
:1003E8005A1E014B1A6080BD6404002080B582B09B
:1003F80000AF00237B60402002F048F9094B1A68DF
:100408003B1D104600211A46002301F0F9F87B68CD
:10041800002B03D0044B4FF080521A600837BD46BA
:1004280080BD00BF6C04002004ED00E080B500AF83
:1004380001F0F6FCFEE700BF80B400AFBD465DF8F2
:10044800047B704780B582B000AF7860396001F0F6
:10045800E7FCFEE780B483B000AF786039600C3702
:10046800BD465DF8047B704780B500AF012002F0FF
:1004780097F8002002F094F8022002F091F8032087
:1004880002F08EF880BD00BF80B582B000AF786002
:100498007B68032B0AD801F0A1FC064A7B68134449
:1004A8001B78184602F0AAF801F0A8FC0837BD46E8
:1004B80080BD00BFFC2C0008002100F004B8104BE0
:1004C8005B58435004310F480F4B42189A42FFF4CF
:1004D800F6AF0E4A00F003B8002342F8043B0C4B79
:1004E8009A42FFF4F9AF0B48016841F470010160CA
:1004F80000F014F802F034FAFFF720FF704700000C
:10050800582D00080000002048040020480400205E
:10051800B831012088ED00E0FFF7FEBF80B500AFDD
:10052800154B154AD2F8882042F47002C3F8882087
:10053800124B124A126842F001021A600F4B002255
:100548009A600E4A0D4B1B6823F0847323F48033A2
:1005580013600A4B0A4A5A60084B084A126822F488
:1005680080221A60054B0022DA6000F00BF8024B7B
:100578004FF000629A6080BD00ED00E00038024054
:100588001030002480B483B000AF00237B600023C8
:100598003B60354B344A126842F480321A60324B61
:1005A8001B6803F400333B607B6801337B603B6866
:1005B800002B03D17B68B3F5A06FF0D12A4B1B68E1
:1005C80003F40033002B02D001233B6001E0002339
:1005D8003B603B68012B42D1234B234A126C42F00B
:1005E80080521A64214B214A126842F480421A60F0
:1005F8001D4B1D4A92689A601B4B1B4A926842F435
:1006080000429A60184B184A926842F4A0529A60C5
:10061800154B174A5A60144B134A126842F08072FD
:100628001A6000BF104B1B6803F00073002BF9D051
:10063800104B40F204621A600B4B0B4A926822F08E
:1006480003029A60084B084A926842F002029A60D4
:1006580000BF054B9B6803F00C03082BF9D10C373E
:10066800BD465DF8047B70470038024000700040CA
:10067800194B4007003C024080B58AB002AFF860D1
:10068800B9603B601346FB80FB68002B02D101F088
:10069800C7FBFEE7BB6A042B02D901F0C1FBFEE7EA
:1006A800FB881846396B00F059FDB861BB69002B0F
:1006B80072D0BB691A6BFB8803F18043013B9B0036
:1006C80013447B617B6923F007037B617B6903F03B
:1006D8000703002B02D001F0A3FBFEE7FB88009381
:1006E800B869B968BA6A7B6B00F042FC7869F96846
:1006F8003A6801F0A3FA0246BB691A60FB6A002B4C
:1007080002D0FB6ABA691A6001F068FB2E4B1B68BD
:100718005A1C2D4B1A602D4B1B68002B09D12B4BF3
:10072800BA691A60284B1B68012B0FD100F068FCCE
:100738000CE0274B1B68002B08D1244B1B68DA6A96
:10074800BB6A9A4202D8214BBA691A60214B1B68CE
:100758005A1C204B1A601F4B1A68BB691A64BB6984
:10076800DA6A1D4B1B689A4203D9BB69DA6A1A4BCD
:100778001A60BB69DA6A13469B0013449B00174A48
:100788001A44BB6904331046194601F0D1F9012314
:10079800FB6101F033FB02E04FF0FF33FB61FB69C3
:1007A800012B0BD10A4B1B68002B07D0074B1B688A
:1007B800DA6ABB6A9A4201D201F000FBFB6918466B
:1007C8002037BD4680BD00BF4805002070040020CA
:1007D80054050020680500205005002074040020FE
:1007E80080B586B000AF7860396000237B617B6894
:1007F800002B02D101F014FBFEE73B68002B02D16D
:1008080001F00EFBFEE700F07BF81F4B1B683B6115
:100818007B681A683B681344FB607B681A683B690D
:100828009A420BD97B681A68FB689A4211D9FA6810
:100838003B699A420DD901237B610AE07B681A68FB
:10084800FB689A4203D8FA683B699A4201D90123A6
:100858007B617B68FA681A607B69002B08D00B4BB8
:100868001B680433184601F0BFF9F86800F040FC33
:1008780000F054F8B860BB68002B01D101F09EFA73
:100888001837BD4680BD00BF4C050020700400200D
:1008980080B586B004AF00230093002301930023A2
:1008A8000293002303931248124982220023FFF780
:1008B800E3FE78607B68012B02D101F04BFB786086
:1008C8007B68012B0AD101F0ABFA0B4B01221A60AD
:1008D8000A4B00221A6001F00BFA05E07B68002B36
:1008E80002D101F09DFAFEE70837BD4680BD00BF82
:1008F800550F0008AC2B0008540500204C050020BB
:1009080080B400AF044B1B685A1C034B1A60BD46E9
:100918005DF8047B704700BF5805002080B582B0A1
:1009280000AF00237B60384B1B68002B02D101F01D
:1009380077FAFEE701F052FA334B1B685A1E324B26
:100948001A60314B1B68002B56D1304B1B68002BAB
:1009580052D02FE02E4BDB68DB683B603B681833D6
:10096800184601F041F93B680433184601F03CF998
:100978003B68DA6A274B1B689A4203D93B68DA6AF4
:10098800244B1A603B68DA6A13469B0013449B00A9
:10099800214A1A443B6804331046194601F0C8F846
:1009A8003B68DA6A1D4B1B68DB6A9A4202D31C4B10
:1009B80001221A60164B1B68002BCBD1194B1B6800
:1009C800002B11D00CE000F041F80346002B02D0B8
:1009D800134B01221A60134B1B685A1E114B1A60E5
:1009E800104B1B68002BEED10D4B1B68012B03D15C
:1009F80001237B6001F0E2F901F000FA7B681846F8
:100A08000837BD4680BD00BF5805002048050020B6
:100A18000805002050050020740400207004002000
:100A2800600500205C05002080B582B000AF01F0B1
:100A3800D5F9054B1B687B6001F0E0F97B68184627
:100A48000837BD4680BD00BF4C05002080B586B084
:100A580000AF00237B615D4B1B68002B40F0A48036
:100A68005B4B1B685A1C5A4B1A60594B1B683B61FD
:100A78003B69002B2ED1574B1B681B68002B02D0FB
:100A880001F0CEF9FEE7534B1B68FB60524B1A6826
:100A9800504B1A60504BFA681A60504B1B685A1C2E
:100AA8004E4B1A604B4B1B681B68002B01D101236E
:100AB80000E00023002B04D0494B4FF0FF321A60AE
:100AC80008E0444B1B68DB68DB68BB60BB685A689E
:100AD800434B1A60424B1B683A699A424FD33D4BCD
:100AE8001B681B68002B01D1012300E00023002BA9
:100AF80004D03B4B4FF0FF321A6040E0354B1B6887
:100B0800DB68DB68BB60BB685B687B603A697B68F5
:100B18009A4203D2324B7A681A6030E0BB680433D9
:100B2800184601F061F8BB689B6A002B04D0BB68CB
:100B38001833184601F058F8BB68DA6A294B1B6865
:100B48009A4203D9BB68DA6A264B1A60BB68DA6A2C
:100B580013469B0013449B00234A1A44BB68043382
:100B68001046194600F0E4FFBB68DA6A1F4B1B68A1
:100B7800DB6A9A4202D301237B61B0E7AFE71B4BE4
:100B88001B68DA6A184913469B0013449B000B4400
:100B98001B68012B01D901237B61154B1B68002BB6
:100BA80009D1FFF7E1FB06E0114B1B685A1C104BFB
:100BB8001A60FFF7D9FB0F4B1B68002B01D00123EC
:100BC8007B617B6918461837BD4680BD58050020F3
:100BD8004C050020000500200405002064050020C5
:100BE8000400002050050020740400207004002038
:100BF8005C0500206005002080B582B000AF354B51
:100C08001B68002B03D0344B01221A605EE0324B84
:100C180000221A60314B1B681A68304B1B681B6B2B
:100C28009A4208D82D4B1A682C4B1B68343310464F
:100C38001946FFF707FC294B1B681B6B1846284908
:100C4800142201F0B5FE0346002B09D0234B1A6885
:100C5800224B1B68343310461946FFF7F3FB0CE0B0
:100C68000BE0204B1B68002B02D101F0D9F8FEE7FE
:100C78001C4B1B685A1E1B4B1A601A4B1A681A49E0
:100C880013469B0013449B000B441B68002BE8D0C1
:100C9800144B1A6813469B0013449B00124A1344D2
:100CA8007B607B685B685A687B685A607B685A68B7
:100CB8007B6808339A4204D17B685B685A687B6812
:100CC8005A607B685B68DA68044B1A600837BD466F
:100CD80080BD00BF5805002060050020700400207A
:100CE800002D0008500500207404002080B584B051
:100CF80000AF786039607B68002B02D101F090F872
:100D0800FEE7124B1B6818337868194600F034FF69
:100D18000E4B1B680433184600F066FF3B68B3F1BE
:100D2800FF3F07D1094B1B6804330948194600F0F7
:100D3800FFFE07E0074B1A683B681344FB60F8683E
:100D480000F0D6F91037BD4680BD00BF7004002002
:100D5800340500204C05002080B584B000AF7860D1
:100D680039607B68002B02D101F05AF8FEE70C4B82
:100D78001B6818337868194600F0DAFE084B1B68C0
:100D88000433184600F030FF064B1A683B681344DA
:100D9800FB60F86800F0ACF91037BD4680BD00BFB5
:100DA800700400204C05002080B584B000AF786046
:100DB8007B68DB68DB68BB60BB68002B02D101F095
:100DC8002FF8FEE7BB681833184600F00DFF1E4BDE
:100DD8001B68002B1DD1BB680433184600F004FFC4
:100DE800BB68DA6A194B1B689A4203D9BB68DA6A8E
:100DF800164B1A60BB68DA6A13469B0013449B00C3
:100E0800134A1A44BB6804331046194600F090FE92
:100E180005E0BB6818330F48194600F089FEBB6827
:100E2800DA6A0D4B1B68DB6A9A4205D30123FB6023
:100E38000A4B01221A6001E00023FB60FB68184698
:100E48001037BD4680BD00BF580500205005002062
:100E580074040020080500207004002060050020AC
:100E680080B582B000AF78607B68002B02D100F0BB
:100E7800D7FFFEE7054B1A687B681A60044B1A68AF
:100E88007B685A600837BD4680BD00BF64050020F6
:100E98004C05002080B584B000AF786039607B686D
:100EA800002B02D100F0BCFFFEE73B68002B02D10B
:100EB80000F0B6FFFEE700F091FF1C4B1B68BB601B
:100EC8003B681B68B3F1FF3F02D10023FB6026E0BB
:100ED8007B681A68164B1B689A4207D07B685A6869
:100EE800BB689A4202D80123FB6018E07B685B6804
:100EF800BA68D21A3B681B689A420ED23B681A68D5
:100F08007B685968BB68CB1A1A443B681A607868D2
:100F1800FFF7A6FF0023FB6001E00123FB6000F060
:100F28006DFFFB6818461037BD4680BD4C05002094
:100F38006405002080B400AF034B01221A60BD464F
:100F48005DF8047B704700BF6005002080B582B063
:100F580000AF786000F092F8044B1B68012B01D9B0
:100F680000F02CFFFFF768FAF4E700BF74040020D4
:100F780080B586B000AFF860B9607A603B60002346
:100F88007B6112E0BA687B6913441A78F9687B6957
:100F98000B4430331A71BA687B6913441B78002BF1
:100FA80000D105E07B6901337B617B69092BE9D9B5
:100FB800FB68002283F83D207B68042B01D90423B9
:100FC8007B60FB687A68DA62FB687A689A64FB6817
:100FD8000433184600F0A0FDFB681833184600F0EB
:100FE8009BFDFB68FA681A617B68C3F10502FB6820
:100FF8009A61FB68FA685A621837BD4680BD00BF1F
:1010080080B582B000AF00237B600CE07A6813469D
:101018009B0013449B00114A1344184600F05CFDE2
:101028007B6801337B607B68042BEFD90C4800F0A8
:1010380053FD0C4800F050FD0B4800F04DFD0B48E7
:1010480000F04AFD0A4800F047FD0A4B044A1A60BE
:10105800094B044A1A600837BD4680BD7404002055
:10106800D8040020EC040020080500201C050020FE
:1010780034050020000500200405002080B582B05A
:1010880000AF28E0FFF73CFC164B1B68002B14BF91
:1010980000230123DBB27B60FFF740FC7B68002B59
:1010A80019D100F09BFE0F4BDB68DB683B603B68A7
:1010B8000433184600F098FD0B4B1B685A1E0A4B68
:1010C8001A600A4B1B685A1E084B1A6000F096FEFD
:1010D800386800F075F8054B1B68002BD2D108372B
:1010E800BD4680BD1C0500204805002030050020B5
:1010F80080B582B000AF7860134B1B687A685A607D
:10110800124B1B687A689A4209D2114B1A680E4B27
:101118001B6804331046194600F02EFD10E00D4BF5
:101128001A68094B1B6804331046194600F024FD61
:10113800094B1B687A689A4202D2074B7A681A6090
:101148000837BD4680BD00BF700400204C05002054
:1011580004050020000500200400002080B584B0AC
:1011680000AF03463960FB804C2001F069F9F86054
:10117800FB68002B1FD03B68002B06D1FB889B0027
:10118800184601F05DF9034600E03B68FA6813630E
:10119800FB681B6B002B05D1F86801F09DF9002353
:1011A800FB6008E0FB681A6BFB889B001046A521D2
:1011B8001A4601F031FCFB6818461037BD4680BD61
:1011C80080B582B000AF78607B681B6B184601F071
:1011D80083F9786801F080F90837BD4680BD00BF03
:1011E80080B483B000AF054B1B687B607B681846F2
:1011F8000C37BD465DF8047B704700BF70040020C3
:1012080080B483B000AF0B4B1B68002B02D10023C6
:101218007B6008E0084B1B68002B02D101237B6030
:1012280001E002237B607B6818460C37BD465DF8F9
:10123800047B7047540500205805002080B584B011
:1012480000AF78607B68FB607B68002B46D0FB684A
:10125800DA6A244B1B68DB6A9A423FD2214B1B682F
:10126800DB6AC3F10502FB689A61FB685969FB6890
:10127800DA6A13469B0013449B001B4A13449942A5
:1012880001D1012300E00023002B22D0FB680433A6
:10129800184600F0A9FC134B1B68DA6AFB68DA628F
:1012A800FB68DA6A114B1B689A4203D9FB68DA6A51
:1012B8000E4B1A60FB68DA6A13469B0013449B00C6
:1012C800094A1A44FB6804331046194600F030FCFA
:1012D80004E0044B1B68DA6AFB68DA621037BD4623
:1012E80080BD00BF70040020740400205005002059
:1012F80080B584B000AF78607B68FB607B68002BAA
:101308002CD0FB68DA6AFB689B6C9A4226D0FB6893
:101318000433184600F068FCFB689A6CFB68DA62D4
:10132800FB68DB6AC3F10502FB689A61FB68DA6A4D
:101338000C4B1B689A4203D9FB68DA6A094B1A609E
:10134800FB68DA6A13469B0013449B00064A1A445A
:10135800FB6804331046194600F0EAFB1037BD4617
:1013680080BD00BF500500207404002080B584B003
:1013780000AF786039607B68FB60FB68002B02D1A6
:1013880000F04EFDFEE700F029FDFB681A68FB68D7
:10139800DB6BF968096C01FB03F31A44FB685A60BC
:1013A800FB6800229A63FB681A68FB689A60FB680E
:1013B8001A68FB68DB6B013BF968096C01FB03F3F6
:1013C8001A44FB68DA60FB684FF0FF325A64FB6826
:1013D8004FF0FF329A643B68002B0ED1FB681B6903
:1013E800002B14D0FB6810331846FFF7DDFC0346CA
:1013F800012B0CD100F0E2FC09E0FB681033184621
:1014080000F06AFBFB682433184600F065FB00F027
:10141800F5FC012318461037BD4680BD80B588B05D
:1014280000AFF860B9601346FB710023FB61FB68ED
:10143800002B2AD0502001F003F8B861BB69002BBB
:1014480023D0FB68BA6802FB03F301337B61786938
:1014580000F0F6FF0246BB691A60BB691B68002BE7
:1014680010D0BB69FA68DA63BB69BA681A64B869EC
:101478000121FFF77BFFBB69FA7983F84D20BB692F
:10148800FB6102E0B86901F027F8FB69002B02D183
:1014980000F0C6FCFEE7FB6918462037BD4680BD54
:1014A80080B588B000AFF860B9607A603B6000230F
:1014B800FB61FB68BB61BB69002B02D100F0B0FC8B
:1014C800FEE7BB68002B03D1BB691B6C002B01D165
:1014D800012300E00023002B02D100F0A1FCFEE76D
:1014E8003B68022B03D1BB69DB6B012B01D10123C4
:1014F80000E00023002B02D100F092FCFEE700F090
:101508006DFCBB699A6BBB69DB6B9A4202D33B6883
:10151800022B16D1B869B9683A6800F0A9F9BB6915
:101528005B6A002B09D0BB6924331846FFF73CFCE3
:101538000346012B01D100F041FC00F05FFC0123C0
:1015480059E07B68002B03D100F058FC002352E0DF
:10155800FB69002B06D107F110031846FFF780FC42
:101568000123FB6100F04AFCFFF7CAF900F036FCE2
:10157800BB695B6CB3F1FF3F02D1BB6900225A64BF
:10158800BB699B6CB3F1FF3F02D1BB6900229A642F
:1015980000F034FC07F110023B1D10461946FFF716
:1015A80079FC0346002B1ED1B86900F051FA0346B6
:1015B800002B12D0BB6903F110027B681046194654
:1015C800FFF794FBB86900F0E1F9FFF7A7F90346C4
:1015D800002B0FD100F0F2FB0CE0B86900F0D6F94F
:1015E800FFF79CF98BE7B86900F0D0F9FFF796F997
:1015F800002300E083E718462037BD4680BD00BFC2
:1016080080B588B000AFF860B9607A603B60FB686D
:10161800BB61BB69002B02D100F002FCFEE7BB688E
:10162800002B03D1BB691B6C002B01D1012300E007
:101638000023002B02D100F0F3FBFEE73B68022BEE
:1016480003D1BB69DB6B012B01D1012300E000232F
:10165800002B02D100F0E4FBFEE700F04FFC00F0A5
:10166800DFFB7861BB699A6BBB69DB6B9A4202D37B
:101678003B68022B24D1B869B9683A6800F0F8F8D9
:10168800BB699B6CB3F1FF3F12D1BB695B6A002B4E
:1016980013D0BB6924331846FFF786FB0346002B9B
:1016A8000BD07B68002B08D07B6801221A6004E00D
:1016B800BB699B6C5A1CBB699A640123FB6101E0FE
:1016C8000023FB61786900F0B5FBFB6918462037F9
:1016D800BD4680BD80B58AB000AFF860B9607A6059
:1016E8003B6000237B62FB683B623B6A002B02D1B4
:1016F80000F096FBFEE7BB68002B03D13B6A1B6C2E
:10170800002B01D1012300E00023002B02D100F0BF
:1017180087FBFEE700F062FB3B6A9B6B002B3BD02C
:101728003B6ADB68FB61386AB96800F009F93B6815
:10173800002B1CD13B6A9B6B5A1E3B6A9A633B6A1F
:101748001B68002B04D1FFF74BFD02463B6A5A6029
:101758003B6A1B69002B1BD03B6A10331846FFF706
:1017680023FB0346012B13D100F028FB10E03B6A52
:10177800FA69DA603B6A5B6A002B09D03B6A24335A
:101788001846FFF711FB0346002B01D000F016FBAB
:1017980000F034FB012366E07B68002B03D100F0E6
:1017A8002DFB00235FE07B6A002B06D107F11403B1
:1017B8001846FFF755FB01237B6200F01FFBFFF77C
:1017C8009FF800F00BFB3B6A5B6CB3F1FF3F02D163
:1017D8003B6A00225A643B6A9B6CB3F1FF3F02D11B
:1017E8003B6A00229A6400F009FB07F114023B1DD2
:1017F80010461946FFF74EFB0346002B2BD1386ADB
:1018080000F010F90346002B1FD03B6A1B68002B21
:1018180008D100F0E3FA3B6A5B681846FFF70EFD53
:1018280000F0ECFA3B6A03F124027B681046194683
:10183800FFF75CFA386A00F0A9F8FFF76FF803467B
:10184800002B0FD100F0BAFA0CE0386A00F09EF8CD
:10185800FFF764F85EE7386A00F098F8FFF75EF87B
:10186800002300E056E718462837BD4680BD00BF74
:1018780080B584B000AFF860B9607A60FB681B6C13
:10188800002B0CD1FB681B68002B51D1FB685B68EF
:101898001846FFF72DFDFB6800225A6048E07B6878
:1018A800002B1AD1FB689A68FB681B6C1046B96854
:1018B8001A46FEF78FFCFB689A68FB681B6C1A4493
:1018C800FB689A60FB689A68FB685B689A422FD34A
:1018D800FB681A68FB689A602AE0FB68DA68FB68AC
:1018E8001B6C1046B9681A46FEF774FCFB68DA6888
:1018F800FB681B6C5B421A44FB68DA60FB68DA68B9
:10190800FB681B689A4207D2FB685A68FB681B6C25
:101918005B421A44FB68DA607B68022B08D1FB68DB
:101928009B6B002B04D0FB689B6B5A1EFB689A6369
:10193800FB689B6B5A1CFB689A631037BD4680BDD9
:1019480080B582B000AF786039607B681B68002B77
:1019580019D07B68DA687B681B6C1A447B68DA608C
:101968007B68DA687B685B689A4203D37B681A688D
:101978007B68DA607B68DA687B681B6C38681146BC
:101988001A46FEF727FC0837BD4680BD80B582B0F1
:1019980000AF786000F022FA14E07B685B6A002BE5
:1019A8000AD07B6824331846FFF7FEF90346002B5C
:1019B80003D0FFF7BFFA00E008E07B689B6C5A1E73
:1019C8007B689A647B689B6C002BE6DC7B684FF035
:1019D800FF329A6400F012FA00F000FA14E07B6813
:1019E8001B69002B0FD07B6810331846FFF7DCF912
:1019F8000346002B01D0FFF79DFA7B685B6C5A1EEB
:101A08007B685A6400E003E07B685B6C002BE6DCD3
:101A18007B684FF0FF325A6400F0F0F90837BD4692
:101A280080BD00BF80B584B000AF786000F0D6F903
:101A38007B689B6B002B02D10123FB6001E0002334
:101A4800FB6000F0DBF9FB6818461037BD4680BD27
:101A580080B584B000AF786000F0C0F97B689A6BFD
:101A68007B68DB6B9A4202D10123FB6001E0002313
:101A7800FB6000F0C3F9FB6818461037BD4680BD0F
:101A880080B584B000AF786039607B68FB6000F097
:101A9800A5F9FB685B6CB3F1FF3F02D1FB6800223C
:101AA8005A64FB689B6CB3F1FF3F02D1FB680022CC
:101AB8009A6400F0A3F9FB689B6B002B05D1FB68C7
:101AC800243318463968FFF747F9F868FFF75EFFCF
:101AD8001037BD4680BD00BF80B483B000AF7860CA
:101AE8007B6803F108027B685A607B684FF0FF321D
:101AF8009A607B6803F108027B68DA607B6803F10F
:101B080008027B681A617B6800221A600C37BD46A0
:101B18005DF8047B704700BF80B483B000AF786085
:101B28007B6800221A610C37BD465DF8047B70475C
:101B380080B485B000AF786039607B685B68FB6013
:101B48003B68FA685A60FB689A683B689A60FB6869
:101B58009B683A685A60FB683A689A603B687A689A
:101B68001A617B681B685A1C7B681A601437BD466B
:101B78005DF8047B704700BF80B485B000AF786023
:101B880039603B681B68BB60BB68B3F1FF3F03D19A
:101B98007B681B69FB600CE07B680833FB6002E034
:101BA800FB685B68FB60FB685B681A68BB689A4205
:101BB800F6D9FB685A683B685A603B685B683A68C4
:101BC8009A603B68FA689A60FB683A685A603B68B2
:101BD8007A681A617B681B685A1C7B681A6014371C
:101BE800BD465DF8047B704780B485B000AF78606F
:101BF8007B685B687A6892689A607B689B687A6899
:101C080052685A607B681B69FB60FB685A687B688E
:101C18009A4203D17B689A68FB685A607B68002205
:101C28001A61FB681B685A1EFB681A60FB681B6810
:101C380018461437BD465DF8047B704780B485B0FC
:101C480000AFF860B9607A60FB68043BFB60FB6832
:101C58004FF080721A60FB68043BFB60BA68FB684F
:101C68001A60FB68043BFB600C4AFB681A60FB685F
:101C7800143BFB607A68FB681A60FB68043BFB60F6
:101C8800FB686FF002021A60FB68203BFB60FB6890
:101C980018461437BD465DF8047B7047A91C000838
:101CA80080B500AF054B1B68B3F1FF3F02D000F0D1
:101CB800B7F8FEE700F0B4F8FEE700BF0800002020
:101CC800054B19680868B0E8F04F80F309884FF0B1
:101CD800000080F3118870477004002003480068F2
:101CE800006880F3088862B600DF00BF08ED00E0F6
:101CF80080B584B000AF2B4BFB60FB681B78DBB270
:101D0800BB60FB68FF221A70FB681B78DBB2FB71B3
:101D1800FB79DBB203F05003DAB2234B1A70234B82
:101D280007221A6009E0214B1B685A1E1F4B1A60D4
:101D3800FB79DBB25B00DBB2FB71FB79DBB2DBB2B8
:101D48005BB2002BEFDB194B1B681A02174B1A60AA
:101D5800164B1B6803F4E062144B1A60BB68DAB2D6
:101D6800FB681A70124B124A126842F470021A6029
:101D78000F4B0F4A126842F070421A6000F09AF84E
:101D88000C4B00221A6000F0AFF80B4B0A4A12689D
:101D980042F040421A60FFF7A1FF002318461037AF
:101DA800BD4680BD00E400E06C0500207005002001
:101DB80020ED00E00800002034EF00E080B400AF20
:101DC800054B4FF080521A60BFF34F8FBFF36F8FF0
:101DD800BD465DF8047B704704ED00E080B500AFB8
:101DE80000F01EF8044B1B685A1C034B1A60BFF323
:101DF8004F8FBFF36F8F80BD0800002080B500AF04
:101E0800064B1B685A1E054B1A60044B1B68002BB7
:101E180002D1002000F00EF880BD00BF08000020AD
:101E2800EFF311804FF0500181F3118870470023C0
:101E3800184600BF80F31188704700BFEFF3098090
:101E4800114B1A681EF0100F08BF20ED108A20E908
:101E5800F04F10602DE908404FF0500080F31188D2
:101E6800FEF7CAFE4FF0000080F31188BDE8084075
:101E780019680868B0E8F04F1EF0100F08BFB0EC02
:101E8800108A80F3098870477004002080B500AF7D
:101E9800FFF7C6FFFEF7DAFD0346002B03D0044B1D
:101EA8004FF080521A600020FFF7C4FF80BD00BFCA
:101EB80004ED00E080B400AF074B084A1168084AF7
:101EC800A2FB01029209013A1A60064B07221A6026
:101ED800BD465DF8047B704714E000E00000002078
:101EE800D34D621010E000E0DFF80C00016841F407
:101EF800700101607047000088ED00E080B582B095
:101F080000AFEFF305837B607B680F2B0CD90D4A7C
:101F18007B6813441B78FB700B4B1B78FA789A424A
:101F280002D2FFF77DFFFEE7084B1B6803F4E0626F
:101F3800074B1B689A4202D9FFF772FFFEE7083782
:101F4800BD4680BDF0E300E06C0500200CED00E02C
:101F58007005002080B586B004AF00237B6000F0D8
:101F680045FA0F4B1B68002B0FD002230093002368
:101F7800019300230293002303930A480A494FF46C
:101F880082720023FEF778FB78607B68002B02D111
:101F9800FFF746FFFEE77B6818460837BD4680BD59
:101FA800A4050020B1200008B42B000880B588B033
:101FB80000AFF860B9607A603B600023FB611D4B9D
:101FC8001B68002B30D0BB683B617B687B61FB687A
:101FD800BB613B68002B1CD1FFF712F90346012BAC
:101FE8000BD1144B1A6807F1100310461946BA6A48
:101FF8000023FFF755FAF86116E00E4B1A6807F14F
:1020080010031046194600220023FFF749FAF86129
:102018000AE0084B1A6807F11003104619463A6897
:102028000023FFF7EDFAF861FB6918462037BD4633
:1020380080BD00BFA405002080B586B002AF7860DF
:102048003960184B1B68DB68DB68FB60FB6804338E
:102058001846FFF7C9FDFB68DB69012B1BD1FB683C
:102068009A697B681344F86819463A687B6800F0F7
:10207800A9F80346012B0ED100230093F86800212C
:102088007A680023FFF792FFB860BB68002B02D183
:10209800FFF7C6FEFEE7FB685B6AF86898471037EB
:1020A800BD4680BD9C05002080B584B000AF786037
:1020B80007F10803184600F03FF8F860BB68F868B5
:1020C800194600F003F800F0BFF8F1E780B584B0D6
:1020D80000AF78603960FEF713FC07F10803184673
:1020E80000F04EF8F860BB68002B1ED13B68002B4F
:1020F8000AD17A68FB689A4206D8FEF70FFC78681E
:10210800F968FFF799FF12E00A4B1A687968FB68CB
:10211800CB1A10461946FFF7B3FCFEF7FFFB034640
:10212800002B04D1FFF74AFE01E0FEF7F7FB10375A
:10213800BD4680BDA405002080B485B000AF78609E
:102148000E4B1B681B68002B14BF00230123DBB256
:102158001A467B681A607B681B68002B05D1074B01
:102168001B68DB681B68FB6001E00023FB60FB6801
:1021780018461437BD465DF8047B70479C0500205F
:1021880080B584B000AF7860FEF74EFCF8600C4B69
:102198001B68FA689A4208D2094B1B68184600F077
:1021A800CBF87B6801221A6002E07B6800221A6083
:1021B800034BFA681A60FB6818461037BD4680BDA5
:1021C800A805002080B586B000AFF860B9607A60D5
:1021D8003B6000237B61FB68BA685A60FB68FA6859
:1021E8001A61BA687B689A4212D87A683B68D21A30
:1021F800FB689B699A4202D301237B611BE0104B69
:102208001A68FB68043310461946FFF7B5FC12E05C
:102218007A683B689A4206D2BA683B689A4202D307
:1022280001237B6107E0074B1A68FB6804331046FB
:102238001946FFF7A1FC7B6918461837BD4680BDD3
:10224800A00500209C05002080B58AB002AF60E0A0
:102258003B69FB61FB695B69002B04D0FB690433B4
:102268001846FFF7C1FC3B1D1846FFF789FFB86108
:10227800BB68032B4CD801A252F823F09522000822
:1022880019230008E722000811230008FA68FB69EF
:102298009B691A44FB68F8691146BA69FFF792FF0F
:1022A8000346012B1AD1FB695B6AF8699847FB69F9
:1022B800DB69012B12D1FA68FB699B691344002280
:1022C8000092F86900211A460023FFF76FFE786133
:1022D8007B69002B02D1FFF7A3FDFEE719E0FA683E
:1022E800FB699A61FB699B69002B02D1FFF798FD96
:1022F800FEE7FB699A69BB691344F8691946BA692C
:10230800BB69FFF75FFF04E0F86900F0E5F800E05B
:1023180000BF084B1A6807F1080310461946002247
:102328000023FFF7D7F90346002B91D12037BD468C
:1023380080BD00BFA405002080B58AB002AF7860D8
:102348003DE0284B1B68DB681B68FB61254B1B685D
:10235800DB68DB68BB61BB6904331846FFF744FCE4
:10236800BB695B6AB8699847BB69DB69012B26D1F1
:10237800BB699A69FB6913447B617A69FB699A4274
:102388000ED9BB697A695A60BB69BA691A61154B7B
:102398001A68BB69043310461946FFF7EDFB0EE0D7
:1023A80000230093B8690021FA690023FFF7FEFDB6
:1023B80038613B69002B02D1FFF732FDFEE7094B7C
:1023C8001B681B68002BBCD1064B1B68FB60064BC7
:1023D8001A68044B1A60044BFA681A602037BD4625
:1023E80080BD00BF9C050020A005002080B500AF7F
:1023F800FFF7F4FC0D4B1B68002B13D10C48FFF7BB
:102408006BFB0C48FFF768FB0B4B094A1A600B4B38
:10241800084A1A600A200C210022FEF7FFFF024634
:10242800024B1A60FFF7EAFC80BD00BFA40500203C
:1024380074050020880500209C050020A0050020C8
:1024480080B584B000AF78600023FB607B6803F040
:102458000703002B04D07B6823F0070308337B6055
:10246800FEF74EFA184B1B68002B05D1174B23F0CB
:1024780007031A46144B1A60154B1A687B681A44EE
:10248800144B9A4213D8124B1A687B681A44104BA3
:102498001B689A420BD90C4B1A680D4B1B681344E6
:1024A800FB600B4B1A687B681A44094B1A60FEF7ED
:1024B80035FAFB68002B01D1FDF7B8FFFB68184619
:1024C8001037BD4680BD00BFB0310120B4050020E3
:1024D800AC310120F72B010080B582B000AF7860E5
:1024E8007B68002B02D0FFF79BFCFEE70837BD4650
:1024F80080BD00BF80B588B004AF78600023FB6062
:1025080010E07B68009300230193002302930023CB
:1025180003930748074982220023FEF7ADF8FB68BA
:102528000133FB60FB68022BEBDD1037BD4680BD35
:1025380041250008BC2B000880B586B000AF786044
:10254800FFF74CFC154B1B687B61144B1B685A1C2E
:10255800124B1A60FFF752FC7B69013340F24D12AF
:1025680002FB03F33B613B695B083B61FEF75CFAE6
:102578000346FB6007F10C0318463969FEF730F98A
:102588007869FDF781FF07F10C0318463969FEF7F2
:1025980027F97869FDF778FFECE700BFB43101202F
:1025A80080B584B000AF0346FB71FA79104B53F83D
:1025B80022301846012100F09BF9FA790D4B33F8C7
:1025C8001230BB6001233B730023BB730123FB73F1
:1025D80002237B73FA79084B53F8222007F108038A
:1025E8001046194600F06EF81037BD4680BD00BF92
:1025F8001C2D0008142D00080C00002080B483B0A6
:1026080000AF0346FB71FA79094B53F82230F97988
:10261800074A52F821205169F879064A32F8102001
:102628004A405A610C37BD465DF8047B704700BFCD
:102638000C000020142D000880B582B000AF78602F
:102648007B68B3F5E06F13D07B68B3F5C06F0FD02C
:102658007B68B3F5A06F0BD07B68B3F5806F07D0AC
:102668007B68B3F5407F03D006487321FDF7F2FE7F
:10267800054A7B6843F0BF6343F40033D3600837EF
:10268800BD4680BDC42B000800ED00E080B582B0D7
:1026980000AF78607B68DB0DDB05002B02D17B681F
:1026A800002B04D1054840F21D11FDF7D3FE044B61
:1026B8007A685A610837BD4680BD00BF0C2C0008F7
:1026C800003C014080B586B000AF786039600023D7
:1026D8007B6100233B610023FB607A687A4B9A4256
:1026E80023D07A68794B9A421FD07A68784B9A42FD
:1026F8001BD07A68774B9A4217D07A68764B9A4201
:1027080013D07A68754B9A420FD07A68744B9A4204
:102718000BD07A68734B9A4207D07A68724B9A4208
:1027280003D07248BB21FDF795FE3B681B68002B60
:1027380003D16E48BC21FDF78DFE3B681B79002B49
:102748000FD03B681B79012B0BD03B681B79022B00
:1027580007D03B681B79032B03D06448BD21FDF7E4
:1027680079FE3B68DB79002B0BD03B68DB79012BCA
:1027780007D03B68DB79022B03D05C48BE21FDF70C
:1027880069FE00237B6197E07B69012202FA03F36B
:102798003B613B681A683B691340FB60FA683B6918
:1027A8009A4240F086807B681A687B695B00032147
:1027B80001FA03F3DB431A407B681A607B681A68E6
:1027C8003B681B7919467B695B0001FA03F31A43DE
:1027D8007B681A603B681B79012B03D03B681B7927
:1027E800022B4ED13B685B79002B0FD03B685B799D
:1027F800012B0BD03B685B79022B07D03B685B79D8
:10280800032B03D03948D021FDF724FE7B689A6852
:102818007B695B00032101FA03F3DB431A407B6801
:102828009A607B689A683B685B7919467B695B00AC
:1028380001FA03F31A437B689A603B689B79002B83
:1028480007D03B689B79012B03D02848D721FDF797
:1028580001FE7B685A687B699BB2012101FA03F388
:10286800DB431A407B685A607B685A683B689B79EF
:1028780019467B699BB201FA03F39BB21A437B6842
:102888005A607B68DA687B699BB25B00032101FAB6
:1028980003F3DB431A407B68DA607B68DA683B68DD
:1028A800DB7919467B695B0001FA03F31A437B68FD
:1028B800DA607B6901337B617B690F2B7FF664AF3C
:1028C8001837BD4680BD00BF00000240000402402A
:1028D80000080240000C02400010024000140240B0
:1028E80000180240001C0240002002405C2C000836
:1028F80080B582B000AF78600B46FB707A68154BE4
:102908001340002B02D17B68002B04D112484FF4EE
:102918008861FDF79FFDFB78002B07D0FB78012B22
:1029280004D00D4840F24241FDF794FDFB78002B9E
:1029380006D00A4B094A116B7A680A431A6306E003
:10294800064B064A116B7A68D2430A401A63083765
:10295800BD4680BD00EE8B81AC2C000800380240DB
:1029680070B50F4E0F4D761BB61007D0043D0024EE
:10297800013455F8043F9847A642F9D10A4E0B4D49
:10298800761B00F0D3F9B61008D0043D00240134BA
:1029980055F8043F9847A642F9D170BD70BD00BFF5
:1029A8004C2D00084C2D0008542D00084C2D000813
:1029B800032A70B428D940EA01039B0713D005788D
:1029C8000C78A54224D1013A002305E010F8015FF4
:1029D80011F8014FA5421BD1934203F10103F5D130
:1029E800002070BC70470C46034625681E68AE423E
:1029F8002146184604F1040403F1040304D1043AFF
:102A0800032A18462146F0D8002AD8D11046E8E70C
:102A1800281B70BC704700BFF0B4840743D0541E15
:102A2800002A3ED0CDB2034603E0621E002C38D007
:102A3800144603F8015B9A07F7D1032C2AD9CDB2C3
:102A480045EA05250F2C45EA054515D9A4F11007D7
:102A58003F0903F1100606EB07161A461560556084
:102A68009560D5601032B242F8D104F00F040137F6
:102A7800032C03EB07130DD91E462246043A032AFA
:102A880046F8045BFAD8221F22F0030204321344EA
:102A980004F003042CB1C9B21C4403F8011BA3427F
:102AA800FBD1F0BC704714460346C6E7024B13B18E
:102AB800024800F005B8704700000000D52A000859
:102AC800014600200246034600F018B838B5094D03
:102AD800094C641BA41018BF05EB840505D0013C04
:102AE80055F8043D9847002CF9D1BDE8384000F06E
:102AF80023B900BF542D0008582D0008F0B5274C05
:102B08002668D6F8484185B00746002C41D065684C
:102B18001F2D1EDD224818B94FF0FF3005B0F0BD5B
:102B28004FF4C870039102920193AFF300800399A8
:102B3800029A019B04460028EED0D6F84851256039
:102B4800002060600546C6F84841C4F88801C4F80A
:102B58008C013FB9AB1C00200135656044F8231097
:102B680005B0F0BD04EB85004FF0010CC0F88820DB
:102B7800D4F888610CFA05F21643022FC4F888616C
:102B8800C0F80831E6D1D4F88C311A43C4F88C2146
:102B9800E0E706F5A674C6F84841B8E7302D000806
:102BA8000000000049444C4500000000546D7220AC
:102BB800537663004C454478000000004170702F44
:102BC80053544D333246342D446973636F766572BE
:102BD800792F4C69627261726965732F53544D3352
:102BE80032463478785F5374645065726970685FF0
:102BF8004472697665722F7372632F6D6973632EE1
:102C0800630000004170702F53544D333246342D09
:102C1800446973636F766572792F4C696272617269
:102C28006965732F53544D3332463478785F537443
:102C3800645065726970685F4472697665722F7353
:102C480072632F73746D3332663478785F65787485
:102C5800692E63004170702F53544D333246342D22
:102C6800446973636F766572792F4C696272617219
:102C78006965732F53544D3332463478785F5374F3
:102C8800645065726970685F4472697665722F7303
:102C980072632F73746D3332663478785F67706946
:102CA8006F2E63004170702F53544D333246342DCC
:102CB800446973636F766572792F4C6962726172C9
:102CC8006965732F53544D3332463478785F5374A3
:102CD800645065726970685F4472697665722F73B3
:102CE80072632F73746D3332663478785F726363FE
:102CF8002E63000001000203A5A5A5A5A5A5A5A50D
:102D0800A5A5A5A5A5A5A5A5A5A5A5A500100020CF
:102D180000400080080000000800000008000000D3
:102D2800080000004300000020000020F8B500BFA4
:102D3800F8BC08BC9E467047F8B500BFF8BC08BC94
:042D48009E467047EC
:082D4C00B52A0008AD010008E2
:042D540089010008E9
:102D580080D1F008FFFFFFFFAAAAAAAA000C024030
:102D6800000C0240000C0240000C02400000000071
:102D7800000000000C03002074030020DC03002086
:102D8800000000000000000000000000000000003B
:102D9800000000000000000000000000000000002B
:102DA800000000002C2D00080000000000000000BA
:102DB800000000000000000000000000000000000B
:102DC80000000000000000000000000000000000FB
:102DD80000000000000000000000000000000000EB
:102DE80000000000000000000000000000000000DB
:102DF80000000000000000000000000000000000CB
:102E080000000000000000000000000000000000BA
:102E180000000000000000000100000000000000A9
:102E28000E33CDAB34126DE6ECDE05000B0000006E
:102E3800000000000000000000000000000000008A
:102E4800000000000000000000000000000000007A
:102E5800000000000000000000000000000000006A
:102E6800000000000000000000000000000000005A
:04000005080004C12A
:00000001FF
